{
  "contractName": "Validator",
  "abi": [
    {
      "inputs": [],
      "stateMutability": "nonpayable",
      "type": "constructor"
    },
    {
      "inputs": [
        {
          "internalType": "address",
          "name": "",
          "type": "address"
        }
      ],
      "name": "people",
      "outputs": [
        {
          "internalType": "uint256",
          "name": "id",
          "type": "uint256"
        },
        {
          "internalType": "string",
          "name": "firstName",
          "type": "string"
        },
        {
          "internalType": "string",
          "name": "lastName",
          "type": "string"
        },
        {
          "internalType": "string",
          "name": "email",
          "type": "string"
        },
        {
          "internalType": "bool",
          "name": "verified",
          "type": "bool"
        },
        {
          "internalType": "bool",
          "name": "benefitsGiven",
          "type": "bool"
        }
      ],
      "stateMutability": "view",
      "type": "function",
      "constant": true
    },
    {
      "inputs": [
        {
          "internalType": "uint256",
          "name": "",
          "type": "uint256"
        }
      ],
      "name": "peopleAddress",
      "outputs": [
        {
          "internalType": "address",
          "name": "",
          "type": "address"
        }
      ],
      "stateMutability": "view",
      "type": "function",
      "constant": true
    },
    {
      "inputs": [],
      "name": "peopleCount",
      "outputs": [
        {
          "internalType": "uint256",
          "name": "",
          "type": "uint256"
        }
      ],
      "stateMutability": "view",
      "type": "function",
      "constant": true
    },
    {
      "inputs": [
        {
          "internalType": "address",
          "name": "",
          "type": "address"
        }
      ],
      "name": "peopleDetails",
      "outputs": [
        {
          "internalType": "uint256",
          "name": "income",
          "type": "uint256"
        },
        {
          "internalType": "uint256",
          "name": "dob",
          "type": "uint256"
        },
        {
          "internalType": "enum Validator.PhysicalStatus",
          "name": "medicalCondition",
          "type": "uint8"
        },
        {
          "internalType": "string",
          "name": "phoneNumber",
          "type": "string"
        },
        {
          "internalType": "string",
          "name": "educationQualification",
          "type": "string"
        },
        {
          "internalType": "uint256",
          "name": "pinCode",
          "type": "uint256"
        },
        {
          "internalType": "string",
          "name": "nativeCountry",
          "type": "string"
        }
      ],
      "stateMutability": "view",
      "type": "function",
      "constant": true
    },
    {
      "inputs": [
        {
          "internalType": "uint256",
          "name": "",
          "type": "uint256"
        }
      ],
      "name": "pinCodes",
      "outputs": [
        {
          "internalType": "string",
          "name": "name",
          "type": "string"
        },
        {
          "internalType": "uint256",
          "name": "pinCode",
          "type": "uint256"
        },
        {
          "internalType": "uint256",
          "name": "averageExpense",
          "type": "uint256"
        }
      ],
      "stateMutability": "view",
      "type": "function",
      "constant": true
    },
    {
      "inputs": [
        {
          "internalType": "string",
          "name": "_firstName",
          "type": "string"
        },
        {
          "internalType": "string",
          "name": "_lastName",
          "type": "string"
        },
        {
          "internalType": "string",
          "name": "_email",
          "type": "string"
        }
      ],
      "name": "createPerson",
      "outputs": [],
      "stateMutability": "nonpayable",
      "type": "function"
    },
    {
      "inputs": [
        {
          "internalType": "uint256",
          "name": "_income",
          "type": "uint256"
        },
        {
          "internalType": "uint256",
          "name": "_dob",
          "type": "uint256"
        },
        {
          "internalType": "enum Validator.PhysicalStatus",
          "name": "_medicalCondition",
          "type": "uint8"
        },
        {
          "internalType": "string",
          "name": "_phoneNumber",
          "type": "string"
        },
        {
          "internalType": "uint256",
          "name": "_pinCode",
          "type": "uint256"
        },
        {
          "internalType": "string",
          "name": "_educationQualification",
          "type": "string"
        },
        {
          "internalType": "string",
          "name": "_nativeCountry",
          "type": "string"
        }
      ],
      "name": "addDetails",
      "outputs": [],
      "stateMutability": "nonpayable",
      "type": "function"
    },
    {
      "inputs": [
        {
          "internalType": "string",
          "name": "_firstName",
          "type": "string"
        },
        {
          "internalType": "string",
          "name": "_lastName",
          "type": "string"
        },
        {
          "internalType": "string",
          "name": "_email",
          "type": "string"
        }
      ],
      "name": "updatePerson",
      "outputs": [],
      "stateMutability": "nonpayable",
      "type": "function"
    },
    {
      "inputs": [
        {
          "internalType": "uint256",
          "name": "_income",
          "type": "uint256"
        },
        {
          "internalType": "uint256",
          "name": "_dob",
          "type": "uint256"
        },
        {
          "internalType": "enum Validator.PhysicalStatus",
          "name": "_medicalCondition",
          "type": "uint8"
        },
        {
          "internalType": "string",
          "name": "_phoneNumber",
          "type": "string"
        },
        {
          "internalType": "string",
          "name": "_educationQualification",
          "type": "string"
        },
        {
          "internalType": "string",
          "name": "_nativeCountry",
          "type": "string"
        }
      ],
      "name": "updateDetails",
      "outputs": [],
      "stateMutability": "nonpayable",
      "type": "function"
    },
    {
      "inputs": [
        {
          "internalType": "address",
          "name": "_personAddress",
          "type": "address"
        }
      ],
      "name": "verifyPerson",
      "outputs": [],
      "stateMutability": "nonpayable",
      "type": "function"
    },
    {
      "inputs": [
        {
          "internalType": "address",
          "name": "beneficiaryAddress",
          "type": "address"
        }
      ],
      "name": "approveBenefits",
      "outputs": [
        {
          "internalType": "uint256",
          "name": "",
          "type": "uint256"
        }
      ],
      "stateMutability": "nonpayable",
      "type": "function"
    },
    {
      "inputs": [],
      "name": "isAdmin",
      "outputs": [
        {
          "internalType": "bool",
          "name": "",
          "type": "bool"
        }
      ],
      "stateMutability": "nonpayable",
      "type": "function"
    }
  ],
  "bytecode": "0x60806040526000805560405180604001604052807324475e90af9e19c7c430e8fc7df60911b44e031f73ffffffffffffffffffffffffffffffffffffffff1673ffffffffffffffffffffffffffffffffffffffff168152602001738cff7d9c34448e5963d74c9fd8825c9ca0b41ec773ffffffffffffffffffffffffffffffffffffffff1673ffffffffffffffffffffffffffffffffffffffff168152506001906002620000af929190620002a7565b50348015620000bd57600080fd5b5060405180606001604052806040518060400160405280600881526020017f42616e676c6f7265000000000000000000000000000000000000000000000000815250815260200162088b8181526020016127108152506005600062088b81815260200190815260200160002060008201518160000190805190602001906200014792919062000336565b50602082015181600101556040820151816002015590505060405180606001604052806040518060400160405280600681526020017f4d79736f7265000000000000000000000000000000000000000000000000000081525081526020016208b2948152602001612328815250600560006208b29481526020019081526020016000206000820151816000019080519060200190620001e892919062000336565b50602082015181600101556040820151816002015590505060405180606001604052806040518060400160405280600a81526020017f4368616e646167616c750000000000000000000000000000000000000000000081525081526020016208b8318152602001611388815250600560006208b831815260200190815260200160002060008201518160000190805190602001906200028992919062000336565b5060208201518160010155604082015181600201559050506200044b565b82805482825590600052602060002090810192821562000323579160200282015b82811115620003225782518260006101000a81548173ffffffffffffffffffffffffffffffffffffffff021916908373ffffffffffffffffffffffffffffffffffffffff16021790555091602001919060010190620002c8565b5b509050620003329190620003c7565b5090565b8280546200034490620003e6565b90600052602060002090601f016020900481019282620003685760008555620003b4565b82601f106200038357805160ff1916838001178555620003b4565b82800160010185558215620003b4579182015b82811115620003b357825182559160200191906001019062000396565b5b509050620003c39190620003c7565b5090565b5b80821115620003e2576000816000905550600101620003c8565b5090565b60006002820490506001821680620003ff57607f821691505b602082108114156200041657620004156200041c565b5b50919050565b7f4e487b7100000000000000000000000000000000000000000000000000000000600052602260045260246000fd5b611b17806200045b6000396000f3fe608060405234801561001057600080fd5b50600436106100b45760003560e01c80635473c404116100715780635473c40414610190578063703dbb5f146101ac57806383ea54c6146101c8578063a832bbae146101fe578063b6db75a01461022e578063c1e0f1bf1461024c576100b4565b80630502af80146100b957806307de9735146100d5578063267c68e01461010a5780632ad6eb33146101285780632faeb9fc1461014457806330d9112014610160575b600080fd5b6100d360048036038101906100ce919061127f565b61027e565b005b6100ef60048036038101906100ea9190611252565b6103e3565b6040516101019695949392919061162e565b60405180910390f35b6101126105d1565b60405161011f9190611613565b60405180910390f35b610142600480360381019061013d9190611353565b6105d7565b005b61015e60048036038101906101599190611252565b610837565b005b61017a60048036038101906101759190611326565b61092c565b604051610187919061159f565b60405180910390f35b6101aa60048036038101906101a59190611434565b61095f565b005b6101c660048036038101906101c1919061127f565b610aef565b005b6101e260048036038101906101dd9190611252565b610c74565b6040516101f597969594939291906116a4565b60405180910390f35b61021860048036038101906102139190611252565b610e5b565b6040516102259190611613565b60405180910390f35b610236610fa1565b60405161024391906115ba565b60405180910390f35b61026660048036038101906102619190611326565b61104e565b604051610275939291906115d5565b60405180910390f35b82600260003373ffffffffffffffffffffffffffffffffffffffff1673ffffffffffffffffffffffffffffffffffffffff16815260200190815260200160002060010190805190602001906102d4929190611100565b5081600260003373ffffffffffffffffffffffffffffffffffffffff1673ffffffffffffffffffffffffffffffffffffffff168152602001908152602001600020600201908051906020019061032b929190611100565b5080600260003373ffffffffffffffffffffffffffffffffffffffff1673ffffffffffffffffffffffffffffffffffffffff1681526020019081526020016000206003019080519060200190610382929190611100565b506000600260003373ffffffffffffffffffffffffffffffffffffffff1673ffffffffffffffffffffffffffffffffffffffff16815260200190815260200160002060040160006101000a81548160ff021916908315150217905550505050565b600260205280600052604060002060009150905080600001549080600101805461040c906118d3565b80601f0160208091040260200160405190810160405280929190818152602001828054610438906118d3565b80156104855780601f1061045a57610100808354040283529160200191610485565b820191906000526020600020905b81548152906001019060200180831161046857829003601f168201915b50505050509080600201805461049a906118d3565b80601f01602080910402602001604051908101604052809291908181526020018280546104c6906118d3565b80156105135780601f106104e857610100808354040283529160200191610513565b820191906000526020600020905b8154815290600101906020018083116104f657829003601f168201915b505050505090806003018054610528906118d3565b80601f0160208091040260200160405190810160405280929190818152602001828054610554906118d3565b80156105a15780601f10610576576101008083540402835291602001916105a1565b820191906000526020600020905b81548152906001019060200180831161058457829003601f168201915b5050505050908060040160009054906101000a900460ff16908060040160019054906101000a900460ff16905086565b60005481565b6000600260003373ffffffffffffffffffffffffffffffffffffffff1673ffffffffffffffffffffffffffffffffffffffff16815260200190815260200160002060040160006101000a81548160ff02191690831515021790555085600360003373ffffffffffffffffffffffffffffffffffffffff1673ffffffffffffffffffffffffffffffffffffffff1681526020019081526020016000206000018190555084600360003373ffffffffffffffffffffffffffffffffffffffff1673ffffffffffffffffffffffffffffffffffffffff1681526020019081526020016000206001018190555083600360003373ffffffffffffffffffffffffffffffffffffffff1673ffffffffffffffffffffffffffffffffffffffff16815260200190815260200160002060020160006101000a81548160ff02191690836002811115610725576107246119ae565b5b021790555082600360003373ffffffffffffffffffffffffffffffffffffffff1673ffffffffffffffffffffffffffffffffffffffff1681526020019081526020016000206003019080519060200190610780929190611100565b5081600360003373ffffffffffffffffffffffffffffffffffffffff1673ffffffffffffffffffffffffffffffffffffffff16815260200190815260200160002060040190805190602001906107d7929190611100565b5080600360003373ffffffffffffffffffffffffffffffffffffffff1673ffffffffffffffffffffffffffffffffffffffff168152602001908152602001600020600601908051906020019061082e929190611100565b50505050505050565b60005b600180549050811015610928576001818154811061085b5761085a611a0c565b5b9060005260206000200160009054906101000a900473ffffffffffffffffffffffffffffffffffffffff1673ffffffffffffffffffffffffffffffffffffffff163373ffffffffffffffffffffffffffffffffffffffff161415610915576001600260008473ffffffffffffffffffffffffffffffffffffffff1673ffffffffffffffffffffffffffffffffffffffff16815260200190815260200160002060040160006101000a81548160ff0219169083151502179055505b808061092090611936565b91505061083a565b5050565b60046020528060005260406000206000915054906101000a900473ffffffffffffffffffffffffffffffffffffffff1681565b6000600260003373ffffffffffffffffffffffffffffffffffffffff1673ffffffffffffffffffffffffffffffffffffffff16815260200190815260200160002060040160006101000a81548160ff0219169083151502179055506040518060e001604052808881526020018781526020018660028111156109e4576109e36119ae565b5b815260200185815260200183815260200184815260200182815250600360003373ffffffffffffffffffffffffffffffffffffffff1673ffffffffffffffffffffffffffffffffffffffff168152602001908152602001600020600082015181600001556020820151816001015560408201518160020160006101000a81548160ff02191690836002811115610a7d57610a7c6119ae565b5b02179055506060820151816003019080519060200190610a9e929190611100565b506080820151816004019080519060200190610abb929190611100565b5060a0820151816005015560c0820151816006019080519060200190610ae2929190611100565b5090505050505050505050565b6001600054610afe919061179a565b60008190555033600460008054815260200190815260200160002060006101000a81548173ffffffffffffffffffffffffffffffffffffffff021916908373ffffffffffffffffffffffffffffffffffffffff1602179055506040518060c00160405280600054815260200184815260200183815260200182815260200160001515815260200160001515815250600260003373ffffffffffffffffffffffffffffffffffffffff1673ffffffffffffffffffffffffffffffffffffffff168152602001908152602001600020600082015181600001556020820151816001019080519060200190610bf1929190611100565b506040820151816002019080519060200190610c0e929190611100565b506060820151816003019080519060200190610c2b929190611100565b5060808201518160040160006101000a81548160ff02191690831515021790555060a08201518160040160016101000a81548160ff021916908315150217905550905050505050565b60036020528060005260406000206000915090508060000154908060010154908060020160009054906101000a900460ff1690806003018054610cb6906118d3565b80601f0160208091040260200160405190810160405280929190818152602001828054610ce2906118d3565b8015610d2f5780601f10610d0457610100808354040283529160200191610d2f565b820191906000526020600020905b815481529060010190602001808311610d1257829003601f168201915b505050505090806004018054610d44906118d3565b80601f0160208091040260200160405190810160405280929190818152602001828054610d70906118d3565b8015610dbd5780601f10610d9257610100808354040283529160200191610dbd565b820191906000526020600020905b815481529060010190602001808311610da057829003601f168201915b505050505090806005015490806006018054610dd8906118d3565b80601f0160208091040260200160405190810160405280929190818152602001828054610e04906118d3565b8015610e515780601f10610e2657610100808354040283529160200191610e51565b820191906000526020600020905b815481529060010190602001808311610e3457829003601f168201915b5050505050905087565b6000806002811115610e7057610e6f6119ae565b5b600360008473ffffffffffffffffffffffffffffffffffffffff1673ffffffffffffffffffffffffffffffffffffffff16815260200190815260200160002060020160009054906101000a900460ff166002811115610ed257610ed16119ae565b5b1415610ee15760009050610f9c565b6000600360008473ffffffffffffffffffffffffffffffffffffffff1673ffffffffffffffffffffffffffffffffffffffff1681526020019081526020016000206005015490506000600560008381526020019081526020016000206002015490506000600360008673ffffffffffffffffffffffffffffffffffffffff1673ffffffffffffffffffffffffffffffffffffffff1681526020019081526020016000206000015482610f9391906117f0565b90508093505050505b919050565b600080600090505b6001805490508110156110455760018181548110610fca57610fc9611a0c565b5b9060005260206000200160009054906101000a900473ffffffffffffffffffffffffffffffffffffffff1673ffffffffffffffffffffffffffffffffffffffff163373ffffffffffffffffffffffffffffffffffffffff16141561103257600191505061104b565b808061103d90611936565b915050610fa9565b50600090505b90565b6005602052806000526040600020600091509050806000018054611071906118d3565b80601f016020809104026020016040519081016040528092919081815260200182805461109d906118d3565b80156110ea5780601f106110bf576101008083540402835291602001916110ea565b820191906000526020600020905b8154815290600101906020018083116110cd57829003601f168201915b5050505050908060010154908060020154905083565b82805461110c906118d3565b90600052602060002090601f01602090048101928261112e5760008555611175565b82601f1061114757805160ff1916838001178555611175565b82800160010185558215611175579182015b82811115611174578251825591602001919060010190611159565b5b5090506111829190611186565b5090565b5b8082111561119f576000816000905550600101611187565b5090565b60006111b66111b18461174d565b611728565b9050828152602081018484840111156111d2576111d1611a6f565b5b6111dd848285611891565b509392505050565b6000813590506111f481611aa3565b92915050565b60008135905061120981611aba565b92915050565b600082601f83011261122457611223611a6a565b5b81356112348482602086016111a3565b91505092915050565b60008135905061124c81611aca565b92915050565b60006020828403121561126857611267611a79565b5b6000611276848285016111e5565b91505092915050565b60008060006060848603121561129857611297611a79565b5b600084013567ffffffffffffffff8111156112b6576112b5611a74565b5b6112c28682870161120f565b935050602084013567ffffffffffffffff8111156112e3576112e2611a74565b5b6112ef8682870161120f565b925050604084013567ffffffffffffffff8111156113105761130f611a74565b5b61131c8682870161120f565b9150509250925092565b60006020828403121561133c5761133b611a79565b5b600061134a8482850161123d565b91505092915050565b60008060008060008060c087890312156113705761136f611a79565b5b600061137e89828a0161123d565b965050602061138f89828a0161123d565b95505060406113a089828a016111fa565b945050606087013567ffffffffffffffff8111156113c1576113c0611a74565b5b6113cd89828a0161120f565b935050608087013567ffffffffffffffff8111156113ee576113ed611a74565b5b6113fa89828a0161120f565b92505060a087013567ffffffffffffffff81111561141b5761141a611a74565b5b61142789828a0161120f565b9150509295509295509295565b600080600080600080600060e0888a03121561145357611452611a79565b5b60006114618a828b0161123d565b97505060206114728a828b0161123d565b96505060406114838a828b016111fa565b955050606088013567ffffffffffffffff8111156114a4576114a3611a74565b5b6114b08a828b0161120f565b94505060806114c18a828b0161123d565b93505060a088013567ffffffffffffffff8111156114e2576114e1611a74565b5b6114ee8a828b0161120f565b92505060c088013567ffffffffffffffff81111561150f5761150e611a74565b5b61151b8a828b0161120f565b91505092959891949750929550565b61153381611824565b82525050565b61154281611836565b82525050565b6115518161187f565b82525050565b60006115628261177e565b61156c8185611789565b935061157c8185602086016118a0565b61158581611a7e565b840191505092915050565b61159981611875565b82525050565b60006020820190506115b4600083018461152a565b92915050565b60006020820190506115cf6000830184611539565b92915050565b600060608201905081810360008301526115ef8186611557565b90506115fe6020830185611590565b61160b6040830184611590565b949350505050565b60006020820190506116286000830184611590565b92915050565b600060c0820190506116436000830189611590565b81810360208301526116558188611557565b905081810360408301526116698187611557565b9050818103606083015261167d8186611557565b905061168c6080830185611539565b61169960a0830184611539565b979650505050505050565b600060e0820190506116b9600083018a611590565b6116c66020830189611590565b6116d36040830188611548565b81810360608301526116e58187611557565b905081810360808301526116f98186611557565b905061170860a0830185611590565b81810360c083015261171a8184611557565b905098975050505050505050565b6000611732611743565b905061173e8282611905565b919050565b6000604051905090565b600067ffffffffffffffff82111561176857611767611a3b565b5b61177182611a7e565b9050602081019050919050565b600081519050919050565b600082825260208201905092915050565b60006117a582611875565b91506117b083611875565b9250827fffffffffffffffffffffffffffffffffffffffffffffffffffffffffffffffff038211156117e5576117e461197f565b5b828201905092915050565b60006117fb82611875565b915061180683611875565b9250828210156118195761181861197f565b5b828203905092915050565b600061182f82611855565b9050919050565b60008115159050919050565b600081905061185082611a8f565b919050565b600073ffffffffffffffffffffffffffffffffffffffff82169050919050565b6000819050919050565b600061188a82611842565b9050919050565b82818337600083830152505050565b60005b838110156118be5780820151818401526020810190506118a3565b838111156118cd576000848401525b50505050565b600060028204905060018216806118eb57607f821691505b602082108114156118ff576118fe6119dd565b5b50919050565b61190e82611a7e565b810181811067ffffffffffffffff8211171561192d5761192c611a3b565b5b80604052505050565b600061194182611875565b91507fffffffffffffffffffffffffffffffffffffffffffffffffffffffffffffffff8214156119745761197361197f565b5b600182019050919050565b7f4e487b7100000000000000000000000000000000000000000000000000000000600052601160045260246000fd5b7f4e487b7100000000000000000000000000000000000000000000000000000000600052602160045260246000fd5b7f4e487b7100000000000000000000000000000000000000000000000000000000600052602260045260246000fd5b7f4e487b7100000000000000000000000000000000000000000000000000000000600052603260045260246000fd5b7f4e487b7100000000000000000000000000000000000000000000000000000000600052604160045260246000fd5b600080fd5b600080fd5b600080fd5b600080fd5b6000601f19601f8301169050919050565b60038110611aa057611a9f6119ae565b5b50565b611aac81611824565b8114611ab757600080fd5b50565b60038110611ac757600080fd5b50565b611ad381611875565b8114611ade57600080fd5b5056fea2646970667358221220941a3fe4a04599caacbffe859cb056035bcb7864bbd0d6ac230243f135d4061264736f6c63430008050033",
  "immutableReferences": {},
  "source": "pragma solidity ^0.8.5;\n\ncontract Validator {\n    // ENUMS for physicalStatus\n    enum PhysicalStatus {NORMAL, PARTIALLY_PHYSICALLY_CHALLENGED, COMPLETELY_PHYSICALLY_CHALLENGED}\n\n    // Keeping the count of the people so that we know how many persons are registered.\n    uint public peopleCount = 0;\n\n    // Array of whitelisted addresses.\n    address[] whiteListedAddresses = [0x24475E90aF9E19C7c430e8fC7dF60911b44e031F, 0x8cFf7D9C34448e5963d74c9fD8825C9ca0b41Ec7];\n\n    // The person blueprint.\n    struct Person {\n        uint id; // Unique identifier for the person to access.\n        string firstName; // First Name of the person.\n        string lastName; // Last Name of the person.\n        string email; // Email of the person.\n        bool verified; // Verified \n        bool benefitsGiven; // Verified \n    }\n\n    struct PersonDetails {\n        uint income; // in cents\n        uint dob; // Date of birth, in integer UNIX time\n        PhysicalStatus medicalCondition; // Medical condition if any \n        string phoneNumber; // Phone number \n        string educationQualification; // Educational Qualification \n        uint pinCode; // Educational Qualification \n        string nativeCountry; // Native country\n    }\n    // City Average Living Expense\n    struct CityExpense {\n        string name; // Name of the city\n        uint pinCode; // pincode of the area\n        uint averageExpense; // Average expense of the city.\n    }\n\n    // Person mapping, to access an specific person.\n    mapping(address => Person) public people;\n    mapping(address => PersonDetails) public peopleDetails;\n    mapping(uint => address) public peopleAddress;\n\n    // Cities mapping from pinCodes.\n    mapping(uint => CityExpense) public pinCodes;\n\n    constructor () public{\n        // Adding cities\n        pinCodes[560001] = CityExpense(\"Banglore\", 560001, 10000);\n        pinCodes[570004] = CityExpense(\"Mysore\", 570004, 9000);\n        pinCodes[571441] = CityExpense(\"Chandagalu\", 571441, 5000);\n    }\n\n\n    // Creator Person.\n    function createPerson (\n        string memory _firstName,\n        string memory _lastName,\n        string memory _email\n    ) public {\n        peopleCount = peopleCount + 1;\n        peopleAddress[peopleCount] = msg.sender;\n        people[msg.sender] = Person(\n            peopleCount,\n            _firstName,\n            _lastName,\n            _email,\n            false,\n            false\n        );\n    }\n\n    // Add details \n    function addDetails (\n        uint _income,\n        uint _dob,\n        PhysicalStatus _medicalCondition,\n        string memory _phoneNumber,\n        uint _pinCode,\n        string memory _educationQualification,\n        string memory _nativeCountry\n    ) public {\n        people[msg.sender].verified = false;\n        peopleDetails[msg.sender] = PersonDetails(\n            _income,\n            _dob,\n            _medicalCondition,\n            _phoneNumber,\n            _educationQualification,\n            _pinCode,\n            _nativeCountry\n        );\n    }\n\n    // Update Person.\n    function updatePerson (\n        string memory _firstName,\n        string memory _lastName,\n        string memory _email\n    ) public {\n        people[msg.sender].firstName = _firstName;\n        people[msg.sender].lastName = _lastName;\n        people[msg.sender].email = _email;\n        people[msg.sender].verified = false;\n    }\n    \n    // Update details \n    function updateDetails (\n        uint _income,\n        uint _dob,\n        PhysicalStatus _medicalCondition,\n        string memory _phoneNumber,\n        string memory _educationQualification,\n        string memory _nativeCountry\n    ) public {\n        people[msg.sender].verified = false;\n        peopleDetails[msg.sender].income = _income;\n        peopleDetails[msg.sender].dob = _dob;\n        peopleDetails[msg.sender].medicalCondition = _medicalCondition;\n        peopleDetails[msg.sender].phoneNumber = _phoneNumber;\n        peopleDetails[msg.sender].educationQualification = _educationQualification;\n        peopleDetails[msg.sender].nativeCountry = _nativeCountry;\n    }\n\n    // Verify Person.\n    function verifyPerson (\n        address _personAddress\n    ) public {\n        for (uint i = 0; i < whiteListedAddresses.length; i++) {\n            if (msg.sender == whiteListedAddresses[i]) {\n                people[_personAddress].verified = true;\n            }\n        }\n    }\n\n    function approveBenefits (\n        address beneficiaryAddress\n    ) public returns(uint) {\n        // 1. Find a location of the person and get the average living expenses\n        // 2. Find the physical status, if normal return\n        // 3. Find the different in their income and \n        // if  (people[beneficiaryAddress].verified == false) {\n        //     return 0;\n        // }\n\n        if (peopleDetails[beneficiaryAddress].medicalCondition == PhysicalStatus.NORMAL) {\n            return 0;\n        }\n\n        uint pinCode = peopleDetails[beneficiaryAddress].pinCode;\n        uint averageExpense = pinCodes[pinCode].averageExpense;\n        \n        uint differentInExpense = averageExpense - peopleDetails[beneficiaryAddress].income;\n        return differentInExpense;\n    }\n\n    function isAdmin () public returns(bool) {\n        for (uint i = 0; i < whiteListedAddresses.length; i++) {\n            if (msg.sender == whiteListedAddresses[i]) {\n                return true;\n            }\n        }\n        return false;\n    }\n}\n",
  "sourcePath": "/Users/sraman/projects/crypto-validator/contracts/Validator.sol",
  "compiler": {
    "name": "solc",
    "version": "0.8.5+commit.a4f2e591.Emscripten.clang"
  },
  "schemaVersion": "3.4.0",
  "updatedAt": "2021-07-06T20:39:01.694Z",
  "networkType": "ethereum",
  "devdoc": {
    "kind": "dev",
    "methods": {},
    "version": 1
  },
  "userdoc": {
    "kind": "user",
    "methods": {},
    "version": 1
  }
}