{
  "contractName": "Validator",
  "abi": [
    {
      "inputs": [
        {
          "internalType": "address",
          "name": "",
          "type": "address"
        }
      ],
      "name": "people",
      "outputs": [
        {
          "internalType": "uint256",
          "name": "id",
          "type": "uint256"
        },
        {
          "internalType": "string",
          "name": "firstName",
          "type": "string"
        },
        {
          "internalType": "string",
          "name": "lastName",
          "type": "string"
        },
        {
          "internalType": "string",
          "name": "email",
          "type": "string"
        }
      ],
      "stateMutability": "view",
      "type": "function",
      "constant": true
    },
    {
      "inputs": [
        {
          "internalType": "uint256",
          "name": "",
          "type": "uint256"
        }
      ],
      "name": "peopleAddress",
      "outputs": [
        {
          "internalType": "address",
          "name": "",
          "type": "address"
        }
      ],
      "stateMutability": "view",
      "type": "function",
      "constant": true
    },
    {
      "inputs": [],
      "name": "peopleCount",
      "outputs": [
        {
          "internalType": "uint256",
          "name": "",
          "type": "uint256"
        }
      ],
      "stateMutability": "view",
      "type": "function",
      "constant": true
    },
    {
      "inputs": [
        {
          "internalType": "address",
          "name": "",
          "type": "address"
        }
      ],
      "name": "peopleDetails",
      "outputs": [
        {
          "internalType": "string",
          "name": "income",
          "type": "string"
        },
        {
          "internalType": "uint256",
          "name": "dob",
          "type": "uint256"
        },
        {
          "internalType": "string",
          "name": "medicalCondition",
          "type": "string"
        },
        {
          "internalType": "string",
          "name": "phoneNumber",
          "type": "string"
        },
        {
          "internalType": "string",
          "name": "educationQualification",
          "type": "string"
        },
        {
          "internalType": "string",
          "name": "nativeCountry",
          "type": "string"
        }
      ],
      "stateMutability": "view",
      "type": "function",
      "constant": true
    },
    {
      "inputs": [
        {
          "internalType": "string",
          "name": "_firstName",
          "type": "string"
        },
        {
          "internalType": "string",
          "name": "_lastName",
          "type": "string"
        },
        {
          "internalType": "string",
          "name": "_email",
          "type": "string"
        }
      ],
      "name": "createPerson",
      "outputs": [],
      "stateMutability": "nonpayable",
      "type": "function"
    },
    {
      "inputs": [
        {
          "internalType": "string",
          "name": "_income",
          "type": "string"
        },
        {
          "internalType": "uint256",
          "name": "_dob",
          "type": "uint256"
        },
        {
          "internalType": "string",
          "name": "_medicalCondition",
          "type": "string"
        },
        {
          "internalType": "string",
          "name": "_phoneNumber",
          "type": "string"
        },
        {
          "internalType": "string",
          "name": "_educationQualification",
          "type": "string"
        },
        {
          "internalType": "string",
          "name": "_nativeCountry",
          "type": "string"
        }
      ],
      "name": "addDetails",
      "outputs": [],
      "stateMutability": "nonpayable",
      "type": "function"
    }
  ],
  "bytecode": "0x60806040526000805534801561001457600080fd5b50611000806100246000396000f3fe608060405234801561001057600080fd5b50600436106100625760003560e01c806307de973514610067578063267c68e01461009a57806330d91120146100b8578063703dbb5f146100e857806383ea54c614610104578063a6272b0e14610139575b600080fd5b610081600480360381019061007c91906109bc565b610155565b6040516100919493929190610ce7565b60405180910390f35b6100a261031d565b6040516100af9190610ccc565b60405180910390f35b6100d260048036038101906100cd9190610ba9565b610323565b6040516100df9190610c2d565b60405180910390f35b61010260048036038101906100fd91906109e9565b610356565b005b61011e600480360381019061011991906109bc565b610489565b60405161013096959493929190610c48565b60405180910390f35b610153600480360381019061014e9190610a90565b61076d565b005b600160205280600052604060002060009150905080600001549080600101805461017e90610e87565b80601f01602080910402602001604051908101604052809291908181526020018280546101aa90610e87565b80156101f75780601f106101cc576101008083540402835291602001916101f7565b820191906000526020600020905b8154815290600101906020018083116101da57829003601f168201915b50505050509080600201805461020c90610e87565b80601f016020809104026020016040519081016040528092919081815260200182805461023890610e87565b80156102855780601f1061025a57610100808354040283529160200191610285565b820191906000526020600020905b81548152906001019060200180831161026857829003601f168201915b50505050509080600301805461029a90610e87565b80601f01602080910402602001604051908101604052809291908181526020018280546102c690610e87565b80156103135780601f106102e857610100808354040283529160200191610313565b820191906000526020600020905b8154815290600101906020018083116102f657829003601f168201915b5050505050905084565b60005481565b60036020528060005260406000206000915054906101000a900473ffffffffffffffffffffffffffffffffffffffff1681565b60016000546103659190610db3565b60008190555033600360008054815260200190815260200160002060006101000a81548173ffffffffffffffffffffffffffffffffffffffff021916908373ffffffffffffffffffffffffffffffffffffffff1602179055506040518060800160405280600054815260200184815260200183815260200182815250600160003373ffffffffffffffffffffffffffffffffffffffff1673ffffffffffffffffffffffffffffffffffffffff16815260200190815260200160002060008201518160000155602082015181600101908051906020019061044692919061087f565b50604082015181600201908051906020019061046392919061087f565b50606082015181600301908051906020019061048092919061087f565b50905050505050565b60026020528060005260406000206000915090508060000180546104ac90610e87565b80601f01602080910402602001604051908101604052809291908181526020018280546104d890610e87565b80156105255780601f106104fa57610100808354040283529160200191610525565b820191906000526020600020905b81548152906001019060200180831161050857829003601f168201915b50505050509080600101549080600201805461054090610e87565b80601f016020809104026020016040519081016040528092919081815260200182805461056c90610e87565b80156105b95780601f1061058e576101008083540402835291602001916105b9565b820191906000526020600020905b81548152906001019060200180831161059c57829003601f168201915b5050505050908060030180546105ce90610e87565b80601f01602080910402602001604051908101604052809291908181526020018280546105fa90610e87565b80156106475780601f1061061c57610100808354040283529160200191610647565b820191906000526020600020905b81548152906001019060200180831161062a57829003601f168201915b50505050509080600401805461065c90610e87565b80601f016020809104026020016040519081016040528092919081815260200182805461068890610e87565b80156106d55780601f106106aa576101008083540402835291602001916106d5565b820191906000526020600020905b8154815290600101906020018083116106b857829003601f168201915b5050505050908060050180546106ea90610e87565b80601f016020809104026020016040519081016040528092919081815260200182805461071690610e87565b80156107635780601f1061073857610100808354040283529160200191610763565b820191906000526020600020905b81548152906001019060200180831161074657829003601f168201915b5050505050905086565b6040518060c0016040528087815260200186815260200185815260200184815260200183815260200182815250600260003373ffffffffffffffffffffffffffffffffffffffff1673ffffffffffffffffffffffffffffffffffffffff16815260200190815260200160002060008201518160000190805190602001906107f592919061087f565b5060208201518160010155604082015181600201908051906020019061081c92919061087f565b50606082015181600301908051906020019061083992919061087f565b50608082015181600401908051906020019061085692919061087f565b5060a082015181600501908051906020019061087392919061087f565b50905050505050505050565b82805461088b90610e87565b90600052602060002090601f0160209004810192826108ad57600085556108f4565b82601f106108c657805160ff19168380011785556108f4565b828001600101855582156108f4579182015b828111156108f35782518255916020019190600101906108d8565b5b5090506109019190610905565b5090565b5b8082111561091e576000816000905550600101610906565b5090565b600061093561093084610d66565b610d41565b90508281526020810184848401111561095157610950610f7c565b5b61095c848285610e45565b509392505050565b60008135905061097381610f9c565b92915050565b600082601f83011261098e5761098d610f77565b5b813561099e848260208601610922565b91505092915050565b6000813590506109b681610fb3565b92915050565b6000602082840312156109d2576109d1610f86565b5b60006109e084828501610964565b91505092915050565b600080600060608486031215610a0257610a01610f86565b5b600084013567ffffffffffffffff811115610a2057610a1f610f81565b5b610a2c86828701610979565b935050602084013567ffffffffffffffff811115610a4d57610a4c610f81565b5b610a5986828701610979565b925050604084013567ffffffffffffffff811115610a7a57610a79610f81565b5b610a8686828701610979565b9150509250925092565b60008060008060008060c08789031215610aad57610aac610f86565b5b600087013567ffffffffffffffff811115610acb57610aca610f81565b5b610ad789828a01610979565b9650506020610ae889828a016109a7565b955050604087013567ffffffffffffffff811115610b0957610b08610f81565b5b610b1589828a01610979565b945050606087013567ffffffffffffffff811115610b3657610b35610f81565b5b610b4289828a01610979565b935050608087013567ffffffffffffffff811115610b6357610b62610f81565b5b610b6f89828a01610979565b92505060a087013567ffffffffffffffff811115610b9057610b8f610f81565b5b610b9c89828a01610979565b9150509295509295509295565b600060208284031215610bbf57610bbe610f86565b5b6000610bcd848285016109a7565b91505092915050565b610bdf81610e09565b82525050565b6000610bf082610d97565b610bfa8185610da2565b9350610c0a818560208601610e54565b610c1381610f8b565b840191505092915050565b610c2781610e3b565b82525050565b6000602082019050610c426000830184610bd6565b92915050565b600060c0820190508181036000830152610c628189610be5565b9050610c716020830188610c1e565b8181036040830152610c838187610be5565b90508181036060830152610c978186610be5565b90508181036080830152610cab8185610be5565b905081810360a0830152610cbf8184610be5565b9050979650505050505050565b6000602082019050610ce16000830184610c1e565b92915050565b6000608082019050610cfc6000830187610c1e565b8181036020830152610d0e8186610be5565b90508181036040830152610d228185610be5565b90508181036060830152610d368184610be5565b905095945050505050565b6000610d4b610d5c565b9050610d578282610eb9565b919050565b6000604051905090565b600067ffffffffffffffff821115610d8157610d80610f48565b5b610d8a82610f8b565b9050602081019050919050565b600081519050919050565b600082825260208201905092915050565b6000610dbe82610e3b565b9150610dc983610e3b565b9250827fffffffffffffffffffffffffffffffffffffffffffffffffffffffffffffffff03821115610dfe57610dfd610eea565b5b828201905092915050565b6000610e1482610e1b565b9050919050565b600073ffffffffffffffffffffffffffffffffffffffff82169050919050565b6000819050919050565b82818337600083830152505050565b60005b83811015610e72578082015181840152602081019050610e57565b83811115610e81576000848401525b50505050565b60006002820490506001821680610e9f57607f821691505b60208210811415610eb357610eb2610f19565b5b50919050565b610ec282610f8b565b810181811067ffffffffffffffff82111715610ee157610ee0610f48565b5b80604052505050565b7f4e487b7100000000000000000000000000000000000000000000000000000000600052601160045260246000fd5b7f4e487b7100000000000000000000000000000000000000000000000000000000600052602260045260246000fd5b7f4e487b7100000000000000000000000000000000000000000000000000000000600052604160045260246000fd5b600080fd5b600080fd5b600080fd5b600080fd5b6000601f19601f8301169050919050565b610fa581610e09565b8114610fb057600080fd5b50565b610fbc81610e3b565b8114610fc757600080fd5b5056fea2646970667358221220b7f754a56c7c17f88568b00c0f6df8feb38762a47d018e2fe5e26db270215f2664736f6c63430008050033",
  "immutableReferences": {},
  "source": "pragma solidity ^0.8.5;\n\ncontract Validator {\n    // Keeping the count of the people so that we know how many persons are registered.\n    uint public peopleCount = 0;\n\n    // The person blueprint.\n    struct Person {\n        uint id; // Unique identifier for the person to access.\n        string firstName; // First Name of the person.\n        string lastName; // Last Name of the person.\n        string email; // Email of the person.\n    }\n\n    struct PersonDetails {\n        string income; // in cents\n        uint dob; // Date of birth, in integer UNIX time\n        string medicalCondition; // Medical condition if any \n        string phoneNumber; // Phone number \n        string educationQualification; // Educational Qualification \n        string nativeCountry; // Native country\n    }\n\n    // Person mapping, to access an specific person.\n    mapping(address => Person) public people;\n    mapping(address => PersonDetails) public peopleDetails;\n    mapping(uint => address) public peopleAddress;\n\n\n    // Creator Person.\n    function createPerson (\n        string memory _firstName,\n        string memory _lastName,\n        string memory _email\n    ) public {\n        peopleCount = peopleCount + 1;\n        peopleAddress[peopleCount] = msg.sender;\n        people[msg.sender] = Person(\n            peopleCount,\n            _firstName,\n            _lastName,\n            _email\n        );\n    }\n\n    // Add details \n    function addDetails (\n        string memory _income,\n        uint _dob,\n        string memory _medicalCondition,\n        string memory _phoneNumber,\n        string memory _educationQualification,\n        string memory _nativeCountry\n    ) public {\n        peopleDetails[msg.sender] = PersonDetails(\n            _income,\n            _dob,\n            _medicalCondition,\n            _phoneNumber,\n            _educationQualification,\n            _nativeCountry\n        );\n    }\n    \n}\n",
  "sourcePath": "/Users/sraman/projects/crypto-validator/contracts/Validator.sol",
  "compiler": {
    "name": "solc",
    "version": "0.8.5+commit.a4f2e591.Emscripten.clang"
  },
  "schemaVersion": "3.4.0",
  "updatedAt": "2021-06-18T21:14:21.811Z",
  "networkType": "ethereum",
  "devdoc": {
    "kind": "dev",
    "methods": {},
    "version": 1
  },
  "userdoc": {
    "kind": "user",
    "methods": {},
    "version": 1
  }
}