{
  "contractName": "Validator",
  "abi": [
    {
      "inputs": [],
      "stateMutability": "nonpayable",
      "type": "constructor"
    },
    {
      "inputs": [],
      "name": "bankBalance",
      "outputs": [
        {
          "internalType": "uint256",
          "name": "",
          "type": "uint256"
        }
      ],
      "stateMutability": "view",
      "type": "function",
      "constant": true
    },
    {
      "inputs": [
        {
          "internalType": "address",
          "name": "",
          "type": "address"
        }
      ],
      "name": "people",
      "outputs": [
        {
          "internalType": "uint256",
          "name": "id",
          "type": "uint256"
        },
        {
          "internalType": "string",
          "name": "firstName",
          "type": "string"
        },
        {
          "internalType": "string",
          "name": "lastName",
          "type": "string"
        },
        {
          "internalType": "string",
          "name": "email",
          "type": "string"
        },
        {
          "internalType": "bool",
          "name": "verified",
          "type": "bool"
        },
        {
          "internalType": "bool",
          "name": "benefitsTransferred",
          "type": "bool"
        }
      ],
      "stateMutability": "view",
      "type": "function",
      "constant": true
    },
    {
      "inputs": [
        {
          "internalType": "uint256",
          "name": "",
          "type": "uint256"
        }
      ],
      "name": "peopleAddress",
      "outputs": [
        {
          "internalType": "address",
          "name": "",
          "type": "address"
        }
      ],
      "stateMutability": "view",
      "type": "function",
      "constant": true
    },
    {
      "inputs": [],
      "name": "peopleCount",
      "outputs": [
        {
          "internalType": "uint256",
          "name": "",
          "type": "uint256"
        }
      ],
      "stateMutability": "view",
      "type": "function",
      "constant": true
    },
    {
      "inputs": [
        {
          "internalType": "address",
          "name": "",
          "type": "address"
        }
      ],
      "name": "peopleDetails",
      "outputs": [
        {
          "internalType": "uint256",
          "name": "income",
          "type": "uint256"
        },
        {
          "internalType": "uint256",
          "name": "dob",
          "type": "uint256"
        },
        {
          "internalType": "enum Validator.PhysicalStatus",
          "name": "medicalCondition",
          "type": "uint8"
        },
        {
          "internalType": "string",
          "name": "phoneNumber",
          "type": "string"
        },
        {
          "internalType": "string",
          "name": "educationQualification",
          "type": "string"
        },
        {
          "internalType": "uint256",
          "name": "pinCode",
          "type": "uint256"
        },
        {
          "internalType": "string",
          "name": "nativeCountry",
          "type": "string"
        }
      ],
      "stateMutability": "view",
      "type": "function",
      "constant": true
    },
    {
      "inputs": [
        {
          "internalType": "uint256",
          "name": "",
          "type": "uint256"
        }
      ],
      "name": "pinCodes",
      "outputs": [
        {
          "internalType": "string",
          "name": "name",
          "type": "string"
        },
        {
          "internalType": "uint256",
          "name": "pinCode",
          "type": "uint256"
        },
        {
          "internalType": "uint256",
          "name": "averageExpense",
          "type": "uint256"
        }
      ],
      "stateMutability": "view",
      "type": "function",
      "constant": true
    },
    {
      "inputs": [
        {
          "internalType": "string",
          "name": "_firstName",
          "type": "string"
        },
        {
          "internalType": "string",
          "name": "_lastName",
          "type": "string"
        },
        {
          "internalType": "string",
          "name": "_email",
          "type": "string"
        }
      ],
      "name": "createPerson",
      "outputs": [],
      "stateMutability": "nonpayable",
      "type": "function"
    },
    {
      "inputs": [
        {
          "internalType": "uint256",
          "name": "_income",
          "type": "uint256"
        },
        {
          "internalType": "uint256",
          "name": "_dob",
          "type": "uint256"
        },
        {
          "internalType": "enum Validator.PhysicalStatus",
          "name": "_medicalCondition",
          "type": "uint8"
        },
        {
          "internalType": "string",
          "name": "_phoneNumber",
          "type": "string"
        },
        {
          "internalType": "uint256",
          "name": "_pinCode",
          "type": "uint256"
        },
        {
          "internalType": "string",
          "name": "_educationQualification",
          "type": "string"
        },
        {
          "internalType": "string",
          "name": "_nativeCountry",
          "type": "string"
        }
      ],
      "name": "addDetails",
      "outputs": [],
      "stateMutability": "nonpayable",
      "type": "function"
    },
    {
      "inputs": [
        {
          "internalType": "string",
          "name": "_firstName",
          "type": "string"
        },
        {
          "internalType": "string",
          "name": "_lastName",
          "type": "string"
        },
        {
          "internalType": "string",
          "name": "_email",
          "type": "string"
        }
      ],
      "name": "updatePerson",
      "outputs": [],
      "stateMutability": "nonpayable",
      "type": "function"
    },
    {
      "inputs": [
        {
          "internalType": "uint256",
          "name": "_income",
          "type": "uint256"
        },
        {
          "internalType": "uint256",
          "name": "_dob",
          "type": "uint256"
        },
        {
          "internalType": "enum Validator.PhysicalStatus",
          "name": "_medicalCondition",
          "type": "uint8"
        },
        {
          "internalType": "string",
          "name": "_phoneNumber",
          "type": "string"
        },
        {
          "internalType": "uint256",
          "name": "_pinCode",
          "type": "uint256"
        },
        {
          "internalType": "string",
          "name": "_educationQualification",
          "type": "string"
        },
        {
          "internalType": "string",
          "name": "_nativeCountry",
          "type": "string"
        }
      ],
      "name": "updateDetails",
      "outputs": [],
      "stateMutability": "nonpayable",
      "type": "function"
    },
    {
      "inputs": [
        {
          "internalType": "address",
          "name": "_personAddress",
          "type": "address"
        }
      ],
      "name": "verifyPerson",
      "outputs": [],
      "stateMutability": "nonpayable",
      "type": "function"
    },
    {
      "inputs": [
        {
          "internalType": "address",
          "name": "_personAddress",
          "type": "address"
        }
      ],
      "name": "unVerifyPerson",
      "outputs": [],
      "stateMutability": "nonpayable",
      "type": "function"
    },
    {
      "inputs": [
        {
          "internalType": "address",
          "name": "beneficiaryAddress",
          "type": "address"
        }
      ],
      "name": "isEligible",
      "outputs": [
        {
          "internalType": "uint256",
          "name": "",
          "type": "uint256"
        }
      ],
      "stateMutability": "nonpayable",
      "type": "function"
    },
    {
      "inputs": [
        {
          "internalType": "address",
          "name": "beneficiaryAddress",
          "type": "address"
        }
      ],
      "name": "transferBenefits",
      "outputs": [],
      "stateMutability": "nonpayable",
      "type": "function"
    },
    {
      "inputs": [],
      "name": "isAdmin",
      "outputs": [
        {
          "internalType": "bool",
          "name": "",
          "type": "bool"
        }
      ],
      "stateMutability": "nonpayable",
      "type": "function"
    }
  ],
  "bytecode": "0x6080604052600080556298968060015560405180604001604052807324475e90af9e19c7c430e8fc7df60911b44e031f73ffffffffffffffffffffffffffffffffffffffff1673ffffffffffffffffffffffffffffffffffffffff168152602001738cff7d9c34448e5963d74c9fd8825c9ca0b41ec773ffffffffffffffffffffffffffffffffffffffff1673ffffffffffffffffffffffffffffffffffffffff168152506002906002620000b6929190620002ae565b50348015620000c457600080fd5b5060405180606001604052806040518060400160405280600881526020017f42616e676c6f7265000000000000000000000000000000000000000000000000815250815260200162088b8181526020016127108152506006600062088b81815260200190815260200160002060008201518160000190805190602001906200014e9291906200033d565b50602082015181600101556040820151816002015590505060405180606001604052806040518060400160405280600681526020017f4d79736f7265000000000000000000000000000000000000000000000000000081525081526020016208b2948152602001612328815250600660006208b29481526020019081526020016000206000820151816000019080519060200190620001ef9291906200033d565b50602082015181600101556040820151816002015590505060405180606001604052806040518060400160405280600a81526020017f4368616e646167616c750000000000000000000000000000000000000000000081525081526020016208b8318152602001611388815250600660006208b83181526020019081526020016000206000820151816000019080519060200190620002909291906200033d565b50602082015181600101556040820151816002015590505062000452565b8280548282559060005260206000209081019282156200032a579160200282015b82811115620003295782518260006101000a81548173ffffffffffffffffffffffffffffffffffffffff021916908373ffffffffffffffffffffffffffffffffffffffff16021790555091602001919060010190620002cf565b5b509050620003399190620003ce565b5090565b8280546200034b90620003ed565b90600052602060002090601f0160209004810192826200036f5760008555620003bb565b82601f106200038a57805160ff1916838001178555620003bb565b82800160010185558215620003bb579182015b82811115620003ba5782518255916020019190600101906200039d565b5b509050620003ca9190620003ce565b5090565b5b80821115620003e9576000816000905550600101620003cf565b5090565b600060028204905060018216806200040657607f821691505b602082108114156200041d576200041c62000423565b5b50919050565b7f4e487b7100000000000000000000000000000000000000000000000000000000600052602260045260246000fd5b611d3580620004626000396000f3fe608060405234801561001057600080fd5b50600436106100f55760003560e01c80635473c4041161009757806383ea54c61161006657806383ea54c614610273578063b6db75a0146102a9578063c1e0f1bf146102c7578063e477f44e146102f9576100f5565b80635473c404146101ef57806366e305fd1461020b5780636a3c90b91461023b578063703dbb5f14610257576100f5565b8063267c68e0116100d3578063267c68e01461016757806328657aa5146101855780632faeb9fc146101a357806330d91120146101bf576100f5565b80630502af80146100fa57806307de9735146101165780631626a3561461014b575b600080fd5b610114600480360381019061010f919061157e565b610315565b005b610130600480360381019061012b9190611551565b61047a565b6040516101429695949392919061184c565b60405180910390f35b61016560048036038101906101609190611551565b610668565b005b61016f6107e8565b60405161017c9190611831565b60405180910390f35b61018d6107ee565b60405161019a9190611831565b60405180910390f35b6101bd60048036038101906101b89190611551565b6107f4565b005b6101d960048036038101906101d49190611625565b6108e9565b6040516101e691906117bd565b60405180910390f35b61020960048036038101906102049190611652565b61091c565b005b61022560048036038101906102209190611551565b610aac565b6040516102329190611831565b60405180910390f35b61025560048036038101906102509190611551565b610bf2565b005b610271600480360381019061026c919061157e565b610ce7565b005b61028d60048036038101906102889190611551565b610e6c565b6040516102a097969594939291906118c2565b60405180910390f35b6102b1611053565b6040516102be91906117d8565b60405180910390f35b6102e160048036038101906102dc9190611625565b611100565b6040516102f0939291906117f3565b60405180910390f35b610313600480360381019061030e9190611652565b6111b2565b005b82600360003373ffffffffffffffffffffffffffffffffffffffff1673ffffffffffffffffffffffffffffffffffffffff168152602001908152602001600020600101908051906020019061036b9291906113ff565b5081600360003373ffffffffffffffffffffffffffffffffffffffff1673ffffffffffffffffffffffffffffffffffffffff16815260200190815260200160002060020190805190602001906103c29291906113ff565b5080600360003373ffffffffffffffffffffffffffffffffffffffff1673ffffffffffffffffffffffffffffffffffffffff16815260200190815260200160002060030190805190602001906104199291906113ff565b506000600360003373ffffffffffffffffffffffffffffffffffffffff1673ffffffffffffffffffffffffffffffffffffffff16815260200190815260200160002060040160006101000a81548160ff021916908315150217905550505050565b60036020528060005260406000206000915090508060000154908060010180546104a390611af1565b80601f01602080910402602001604051908101604052809291908181526020018280546104cf90611af1565b801561051c5780601f106104f15761010080835404028352916020019161051c565b820191906000526020600020905b8154815290600101906020018083116104ff57829003601f168201915b50505050509080600201805461053190611af1565b80601f016020809104026020016040519081016040528092919081815260200182805461055d90611af1565b80156105aa5780601f1061057f576101008083540402835291602001916105aa565b820191906000526020600020905b81548152906001019060200180831161058d57829003601f168201915b5050505050908060030180546105bf90611af1565b80601f01602080910402602001604051908101604052809291908181526020018280546105eb90611af1565b80156106385780601f1061060d57610100808354040283529160200191610638565b820191906000526020600020905b81548152906001019060200180831161061b57829003601f168201915b5050505050908060040160009054906101000a900460ff16908060040160019054906101000a900460ff16905086565b600061067382610aac565b905060011515600360008473ffffffffffffffffffffffffffffffffffffffff1673ffffffffffffffffffffffffffffffffffffffff16815260200190815260200160002060040160009054906101000a900460ff1615151480156106d85750600081115b156107e45760005b6002805490508110156107e2576002818154811061070157610700611c2a565b5b9060005260206000200160009054906101000a900473ffffffffffffffffffffffffffffffffffffffff1673ffffffffffffffffffffffffffffffffffffffff163373ffffffffffffffffffffffffffffffffffffffff1614156107cf578160015461076d9190611a0e565b6001819055506001600360008573ffffffffffffffffffffffffffffffffffffffff1673ffffffffffffffffffffffffffffffffffffffff16815260200190815260200160002060040160016101000a81548160ff0219169083151502179055505b80806107da90611b54565b9150506106e0565b505b5050565b60005481565b60015481565b60005b6002805490508110156108e5576002818154811061081857610817611c2a565b5b9060005260206000200160009054906101000a900473ffffffffffffffffffffffffffffffffffffffff1673ffffffffffffffffffffffffffffffffffffffff163373ffffffffffffffffffffffffffffffffffffffff1614156108d2576001600360008473ffffffffffffffffffffffffffffffffffffffff1673ffffffffffffffffffffffffffffffffffffffff16815260200190815260200160002060040160006101000a81548160ff0219169083151502179055505b80806108dd90611b54565b9150506107f7565b5050565b60056020528060005260406000206000915054906101000a900473ffffffffffffffffffffffffffffffffffffffff1681565b6000600360003373ffffffffffffffffffffffffffffffffffffffff1673ffffffffffffffffffffffffffffffffffffffff16815260200190815260200160002060040160006101000a81548160ff0219169083151502179055506040518060e001604052808881526020018781526020018660028111156109a1576109a0611bcc565b5b815260200185815260200183815260200184815260200182815250600460003373ffffffffffffffffffffffffffffffffffffffff1673ffffffffffffffffffffffffffffffffffffffff168152602001908152602001600020600082015181600001556020820151816001015560408201518160020160006101000a81548160ff02191690836002811115610a3a57610a39611bcc565b5b02179055506060820151816003019080519060200190610a5b9291906113ff565b506080820151816004019080519060200190610a789291906113ff565b5060a0820151816005015560c0820151816006019080519060200190610a9f9291906113ff565b5090505050505050505050565b6000806002811115610ac157610ac0611bcc565b5b600460008473ffffffffffffffffffffffffffffffffffffffff1673ffffffffffffffffffffffffffffffffffffffff16815260200190815260200160002060020160009054906101000a900460ff166002811115610b2357610b22611bcc565b5b1415610b325760009050610bed565b6000600460008473ffffffffffffffffffffffffffffffffffffffff1673ffffffffffffffffffffffffffffffffffffffff1681526020019081526020016000206005015490506000600660008381526020019081526020016000206002015490506000600460008673ffffffffffffffffffffffffffffffffffffffff1673ffffffffffffffffffffffffffffffffffffffff1681526020019081526020016000206000015482610be49190611a0e565b90508093505050505b919050565b60005b600280549050811015610ce35760028181548110610c1657610c15611c2a565b5b9060005260206000200160009054906101000a900473ffffffffffffffffffffffffffffffffffffffff1673ffffffffffffffffffffffffffffffffffffffff163373ffffffffffffffffffffffffffffffffffffffff161415610cd0576000600360008473ffffffffffffffffffffffffffffffffffffffff1673ffffffffffffffffffffffffffffffffffffffff16815260200190815260200160002060040160006101000a81548160ff0219169083151502179055505b8080610cdb90611b54565b915050610bf5565b5050565b6001600054610cf691906119b8565b60008190555033600560008054815260200190815260200160002060006101000a81548173ffffffffffffffffffffffffffffffffffffffff021916908373ffffffffffffffffffffffffffffffffffffffff1602179055506040518060c00160405280600054815260200184815260200183815260200182815260200160001515815260200160001515815250600360003373ffffffffffffffffffffffffffffffffffffffff1673ffffffffffffffffffffffffffffffffffffffff168152602001908152602001600020600082015181600001556020820151816001019080519060200190610de99291906113ff565b506040820151816002019080519060200190610e069291906113ff565b506060820151816003019080519060200190610e239291906113ff565b5060808201518160040160006101000a81548160ff02191690831515021790555060a08201518160040160016101000a81548160ff021916908315150217905550905050505050565b60046020528060005260406000206000915090508060000154908060010154908060020160009054906101000a900460ff1690806003018054610eae90611af1565b80601f0160208091040260200160405190810160405280929190818152602001828054610eda90611af1565b8015610f275780601f10610efc57610100808354040283529160200191610f27565b820191906000526020600020905b815481529060010190602001808311610f0a57829003601f168201915b505050505090806004018054610f3c90611af1565b80601f0160208091040260200160405190810160405280929190818152602001828054610f6890611af1565b8015610fb55780601f10610f8a57610100808354040283529160200191610fb5565b820191906000526020600020905b815481529060010190602001808311610f9857829003601f168201915b505050505090806005015490806006018054610fd090611af1565b80601f0160208091040260200160405190810160405280929190818152602001828054610ffc90611af1565b80156110495780601f1061101e57610100808354040283529160200191611049565b820191906000526020600020905b81548152906001019060200180831161102c57829003601f168201915b5050505050905087565b600080600090505b6002805490508110156110f7576002818154811061107c5761107b611c2a565b5b9060005260206000200160009054906101000a900473ffffffffffffffffffffffffffffffffffffffff1673ffffffffffffffffffffffffffffffffffffffff163373ffffffffffffffffffffffffffffffffffffffff1614156110e45760019150506110fd565b80806110ef90611b54565b91505061105b565b50600090505b90565b600660205280600052604060002060009150905080600001805461112390611af1565b80601f016020809104026020016040519081016040528092919081815260200182805461114f90611af1565b801561119c5780601f106111715761010080835404028352916020019161119c565b820191906000526020600020905b81548152906001019060200180831161117f57829003601f168201915b5050505050908060010154908060020154905083565b86600460003373ffffffffffffffffffffffffffffffffffffffff1673ffffffffffffffffffffffffffffffffffffffff1681526020019081526020016000206000018190555085600460003373ffffffffffffffffffffffffffffffffffffffff1673ffffffffffffffffffffffffffffffffffffffff1681526020019081526020016000206001018190555084600460003373ffffffffffffffffffffffffffffffffffffffff1673ffffffffffffffffffffffffffffffffffffffff16815260200190815260200160002060020160006101000a81548160ff021916908360028111156112a5576112a4611bcc565b5b021790555083600460003373ffffffffffffffffffffffffffffffffffffffff1673ffffffffffffffffffffffffffffffffffffffff16815260200190815260200160002060030190805190602001906113009291906113ff565b5082600460003373ffffffffffffffffffffffffffffffffffffffff1673ffffffffffffffffffffffffffffffffffffffff1681526020019081526020016000206005018190555081600460003373ffffffffffffffffffffffffffffffffffffffff1673ffffffffffffffffffffffffffffffffffffffff168152602001908152602001600020600401908051906020019061139e9291906113ff565b5080600460003373ffffffffffffffffffffffffffffffffffffffff1673ffffffffffffffffffffffffffffffffffffffff16815260200190815260200160002060060190805190602001906113f59291906113ff565b5050505050505050565b82805461140b90611af1565b90600052602060002090601f01602090048101928261142d5760008555611474565b82601f1061144657805160ff1916838001178555611474565b82800160010185558215611474579182015b82811115611473578251825591602001919060010190611458565b5b5090506114819190611485565b5090565b5b8082111561149e576000816000905550600101611486565b5090565b60006114b56114b08461196b565b611946565b9050828152602081018484840111156114d1576114d0611c8d565b5b6114dc848285611aaf565b509392505050565b6000813590506114f381611cc1565b92915050565b60008135905061150881611cd8565b92915050565b600082601f83011261152357611522611c88565b5b81356115338482602086016114a2565b91505092915050565b60008135905061154b81611ce8565b92915050565b60006020828403121561156757611566611c97565b5b6000611575848285016114e4565b91505092915050565b60008060006060848603121561159757611596611c97565b5b600084013567ffffffffffffffff8111156115b5576115b4611c92565b5b6115c18682870161150e565b935050602084013567ffffffffffffffff8111156115e2576115e1611c92565b5b6115ee8682870161150e565b925050604084013567ffffffffffffffff81111561160f5761160e611c92565b5b61161b8682870161150e565b9150509250925092565b60006020828403121561163b5761163a611c97565b5b60006116498482850161153c565b91505092915050565b600080600080600080600060e0888a03121561167157611670611c97565b5b600061167f8a828b0161153c565b97505060206116908a828b0161153c565b96505060406116a18a828b016114f9565b955050606088013567ffffffffffffffff8111156116c2576116c1611c92565b5b6116ce8a828b0161150e565b94505060806116df8a828b0161153c565b93505060a088013567ffffffffffffffff811115611700576116ff611c92565b5b61170c8a828b0161150e565b92505060c088013567ffffffffffffffff81111561172d5761172c611c92565b5b6117398a828b0161150e565b91505092959891949750929550565b61175181611a42565b82525050565b61176081611a54565b82525050565b61176f81611a9d565b82525050565b60006117808261199c565b61178a81856119a7565b935061179a818560208601611abe565b6117a381611c9c565b840191505092915050565b6117b781611a93565b82525050565b60006020820190506117d26000830184611748565b92915050565b60006020820190506117ed6000830184611757565b92915050565b6000606082019050818103600083015261180d8186611775565b905061181c60208301856117ae565b61182960408301846117ae565b949350505050565b600060208201905061184660008301846117ae565b92915050565b600060c08201905061186160008301896117ae565b81810360208301526118738188611775565b905081810360408301526118878187611775565b9050818103606083015261189b8186611775565b90506118aa6080830185611757565b6118b760a0830184611757565b979650505050505050565b600060e0820190506118d7600083018a6117ae565b6118e460208301896117ae565b6118f16040830188611766565b81810360608301526119038187611775565b905081810360808301526119178186611775565b905061192660a08301856117ae565b81810360c08301526119388184611775565b905098975050505050505050565b6000611950611961565b905061195c8282611b23565b919050565b6000604051905090565b600067ffffffffffffffff82111561198657611985611c59565b5b61198f82611c9c565b9050602081019050919050565b600081519050919050565b600082825260208201905092915050565b60006119c382611a93565b91506119ce83611a93565b9250827fffffffffffffffffffffffffffffffffffffffffffffffffffffffffffffffff03821115611a0357611a02611b9d565b5b828201905092915050565b6000611a1982611a93565b9150611a2483611a93565b925082821015611a3757611a36611b9d565b5b828203905092915050565b6000611a4d82611a73565b9050919050565b60008115159050919050565b6000819050611a6e82611cad565b919050565b600073ffffffffffffffffffffffffffffffffffffffff82169050919050565b6000819050919050565b6000611aa882611a60565b9050919050565b82818337600083830152505050565b60005b83811015611adc578082015181840152602081019050611ac1565b83811115611aeb576000848401525b50505050565b60006002820490506001821680611b0957607f821691505b60208210811415611b1d57611b1c611bfb565b5b50919050565b611b2c82611c9c565b810181811067ffffffffffffffff82111715611b4b57611b4a611c59565b5b80604052505050565b6000611b5f82611a93565b91507fffffffffffffffffffffffffffffffffffffffffffffffffffffffffffffffff821415611b9257611b91611b9d565b5b600182019050919050565b7f4e487b7100000000000000000000000000000000000000000000000000000000600052601160045260246000fd5b7f4e487b7100000000000000000000000000000000000000000000000000000000600052602160045260246000fd5b7f4e487b7100000000000000000000000000000000000000000000000000000000600052602260045260246000fd5b7f4e487b7100000000000000000000000000000000000000000000000000000000600052603260045260246000fd5b7f4e487b7100000000000000000000000000000000000000000000000000000000600052604160045260246000fd5b600080fd5b600080fd5b600080fd5b600080fd5b6000601f19601f8301169050919050565b60038110611cbe57611cbd611bcc565b5b50565b611cca81611a42565b8114611cd557600080fd5b50565b60038110611ce557600080fd5b50565b611cf181611a93565b8114611cfc57600080fd5b5056fea264697066735822122034bd25f340a954b82c2306f2d817663da75a63d0452972600703de6dc0b6b94a64736f6c63430008050033",
  "immutableReferences": {},
  "source": "pragma solidity ^0.8.5;\n\ncontract Validator {\n    // ENUMS for physicalStatus\n    enum PhysicalStatus {NORMAL, PARTIALLY_PHYSICALLY_CHALLENGED, COMPLETELY_PHYSICALLY_CHALLENGED}\n\n    // Keeping the count of the people so that we know how many persons are registered.\n    uint public peopleCount = 0;\n\n    // Govt bank balance;\n    uint public bankBalance = 10000000;\n\n    // Array of whitelisted addresses.\n    address[] whiteListedAddresses = [0x24475E90aF9E19C7c430e8fC7dF60911b44e031F, 0x8cFf7D9C34448e5963d74c9fD8825C9ca0b41Ec7];\n\n    // The person blueprint.\n    struct Person {\n        uint id; // Unique identifier for the person to access.\n        string firstName; // First Name of the person.\n        string lastName; // Last Name of the person.\n        string email; // Email of the person.\n        bool verified; // Verified \n        bool benefitsTransferred; // Verified\n    }\n\n    struct PersonDetails {\n        uint income; // in cents\n        uint dob; // Date of birth, in integer UNIX time\n        PhysicalStatus medicalCondition; // Medical condition if any \n        string phoneNumber; // Phone number \n        string educationQualification; // Educational Qualification \n        uint pinCode; // Educational Qualification \n        string nativeCountry; // Native country\n    }\n    // City Average Living Expense\n    struct CityExpense {\n        string name; // Name of the city\n        uint pinCode; // pincode of the area\n        uint averageExpense; // Average expense of the city.\n    }\n\n    // Person mapping, to access an specific person.\n    mapping(address => Person) public people;\n    mapping(address => PersonDetails) public peopleDetails;\n    mapping(uint => address) public peopleAddress;\n\n    // Cities mapping from pinCodes.\n    mapping(uint => CityExpense) public pinCodes;\n\n    constructor () public{\n        // Adding cities\n        pinCodes[560001] = CityExpense(\"Banglore\", 560001, 10000);\n        pinCodes[570004] = CityExpense(\"Mysore\", 570004, 9000);\n        pinCodes[571441] = CityExpense(\"Chandagalu\", 571441, 5000);\n    }\n\n\n    // Creator Person.\n    function createPerson (\n        string memory _firstName,\n        string memory _lastName,\n        string memory _email\n    ) public {\n        peopleCount = peopleCount + 1;\n        peopleAddress[peopleCount] = msg.sender;\n        people[msg.sender] = Person(\n            peopleCount,\n            _firstName,\n            _lastName,\n            _email,\n            false,\n            false\n        );\n    }\n\n    // Add details \n    function addDetails (\n        uint _income,\n        uint _dob,\n        PhysicalStatus _medicalCondition,\n        string memory _phoneNumber,\n        uint _pinCode,\n        string memory _educationQualification,\n        string memory _nativeCountry\n    ) public {\n        people[msg.sender].verified = false;\n        peopleDetails[msg.sender] = PersonDetails(\n            _income,\n            _dob,\n            _medicalCondition,\n            _phoneNumber,\n            _educationQualification,\n            _pinCode,\n            _nativeCountry\n        );\n    }\n\n    // Update Person.\n    function updatePerson (\n        string memory _firstName,\n        string memory _lastName,\n        string memory _email\n    ) public {\n        people[msg.sender].firstName = _firstName;\n        people[msg.sender].lastName = _lastName;\n        people[msg.sender].email = _email;\n        people[msg.sender].verified = false;\n    }\n    \n    // Update details \n    function updateDetails (\n        uint _income,\n        uint _dob,\n        PhysicalStatus _medicalCondition,\n        string memory _phoneNumber,\n        uint _pinCode,\n        string memory _educationQualification,\n        string memory _nativeCountry\n    ) public {\n        peopleDetails[msg.sender].income = _income;\n        peopleDetails[msg.sender].dob = _dob;\n        peopleDetails[msg.sender].medicalCondition = _medicalCondition;\n        peopleDetails[msg.sender].phoneNumber = _phoneNumber;\n        peopleDetails[msg.sender].pinCode = _pinCode;\n        peopleDetails[msg.sender].educationQualification = _educationQualification;\n        peopleDetails[msg.sender].nativeCountry = _nativeCountry;\n    }\n\n    // Verify Person.\n    function verifyPerson (\n        address _personAddress\n    ) public {\n        for (uint i = 0; i < whiteListedAddresses.length; i++) {\n            if (msg.sender == whiteListedAddresses[i]) {\n                people[_personAddress].verified = true;\n            }\n        }\n    }\n\n\n    // Un Verify Person.\n    function unVerifyPerson (\n        address _personAddress\n    ) public {\n        for (uint i = 0; i < whiteListedAddresses.length; i++) {\n            if (msg.sender == whiteListedAddresses[i]) {\n                people[_personAddress].verified = false;\n            }\n        }\n    }\n\n    function isEligible (\n        address beneficiaryAddress\n    ) public returns(uint) {\n        // 1. Find a location of the person and get the average living expenses\n        // 2. Find the physical status, if normal return\n        // 3. Find the different in their income and \n        // if  (people[beneficiaryAddress].verified == false) {\n        //     return 0;\n        // }\n\n        if (peopleDetails[beneficiaryAddress].medicalCondition == PhysicalStatus.NORMAL) {\n            return 0;\n        }\n\n        uint pinCode = peopleDetails[beneficiaryAddress].pinCode;\n        uint averageExpense = pinCodes[pinCode].averageExpense;\n        \n        uint differentInExpense = averageExpense - peopleDetails[beneficiaryAddress].income;\n        return differentInExpense;\n    }\n\n    function transferBenefits (address beneficiaryAddress) public {\n        uint benefitsToBeTransferred = isEligible(beneficiaryAddress);\n        if  (people[beneficiaryAddress].verified == true && benefitsToBeTransferred > 0) {\n            for (uint i = 0; i < whiteListedAddresses.length; i++) {\n                if (msg.sender == whiteListedAddresses[i]) {\n                    bankBalance = bankBalance - benefitsToBeTransferred;\n                    people[beneficiaryAddress].benefitsTransferred = true;\n                }\n            } \n        }\n    }\n\n    function isAdmin () public returns(bool) {\n        for (uint i = 0; i < whiteListedAddresses.length; i++) {\n            if (msg.sender == whiteListedAddresses[i]) {\n                return true;\n            }\n        }\n        return false;\n    }\n}\n",
  "sourcePath": "/Users/sraman/projects/crypto-validator/contracts/Validator.sol",
  "compiler": {
    "name": "solc",
    "version": "0.8.5+commit.a4f2e591.Emscripten.clang"
  },
  "schemaVersion": "3.4.0",
  "updatedAt": "2021-07-11T21:57:24.469Z",
  "networkType": "ethereum",
  "devdoc": {
    "kind": "dev",
    "methods": {},
    "version": 1
  },
  "userdoc": {
    "kind": "user",
    "methods": {},
    "version": 1
  }
}