{
  "contractName": "Validator",
  "abi": [
    {
      "inputs": [
        {
          "internalType": "address",
          "name": "",
          "type": "address"
        }
      ],
      "name": "people",
      "outputs": [
        {
          "internalType": "uint256",
          "name": "id",
          "type": "uint256"
        },
        {
          "internalType": "string",
          "name": "firstName",
          "type": "string"
        },
        {
          "internalType": "string",
          "name": "lastName",
          "type": "string"
        },
        {
          "internalType": "string",
          "name": "email",
          "type": "string"
        },
        {
          "internalType": "bool",
          "name": "verified",
          "type": "bool"
        },
        {
          "internalType": "bool",
          "name": "benefitsGiven",
          "type": "bool"
        }
      ],
      "stateMutability": "view",
      "type": "function",
      "constant": true
    },
    {
      "inputs": [
        {
          "internalType": "uint256",
          "name": "",
          "type": "uint256"
        }
      ],
      "name": "peopleAddress",
      "outputs": [
        {
          "internalType": "address",
          "name": "",
          "type": "address"
        }
      ],
      "stateMutability": "view",
      "type": "function",
      "constant": true
    },
    {
      "inputs": [],
      "name": "peopleCount",
      "outputs": [
        {
          "internalType": "uint256",
          "name": "",
          "type": "uint256"
        }
      ],
      "stateMutability": "view",
      "type": "function",
      "constant": true
    },
    {
      "inputs": [
        {
          "internalType": "address",
          "name": "",
          "type": "address"
        }
      ],
      "name": "peopleDetails",
      "outputs": [
        {
          "internalType": "string",
          "name": "income",
          "type": "string"
        },
        {
          "internalType": "uint256",
          "name": "dob",
          "type": "uint256"
        },
        {
          "internalType": "enum Validator.PhysicalStatus",
          "name": "medicalCondition",
          "type": "uint8"
        },
        {
          "internalType": "string",
          "name": "phoneNumber",
          "type": "string"
        },
        {
          "internalType": "string",
          "name": "educationQualification",
          "type": "string"
        },
        {
          "internalType": "uint256",
          "name": "pinCode",
          "type": "uint256"
        },
        {
          "internalType": "string",
          "name": "nativeCountry",
          "type": "string"
        }
      ],
      "stateMutability": "view",
      "type": "function",
      "constant": true
    },
    {
      "inputs": [
        {
          "internalType": "uint256",
          "name": "",
          "type": "uint256"
        }
      ],
      "name": "pinCodes",
      "outputs": [
        {
          "internalType": "string",
          "name": "name",
          "type": "string"
        },
        {
          "internalType": "uint256",
          "name": "pinCode",
          "type": "uint256"
        },
        {
          "internalType": "uint256",
          "name": "averageExpense",
          "type": "uint256"
        }
      ],
      "stateMutability": "view",
      "type": "function",
      "constant": true
    },
    {
      "inputs": [
        {
          "internalType": "string",
          "name": "_firstName",
          "type": "string"
        },
        {
          "internalType": "string",
          "name": "_lastName",
          "type": "string"
        },
        {
          "internalType": "string",
          "name": "_email",
          "type": "string"
        }
      ],
      "name": "createPerson",
      "outputs": [],
      "stateMutability": "nonpayable",
      "type": "function"
    },
    {
      "inputs": [
        {
          "internalType": "string",
          "name": "_income",
          "type": "string"
        },
        {
          "internalType": "uint256",
          "name": "_dob",
          "type": "uint256"
        },
        {
          "internalType": "enum Validator.PhysicalStatus",
          "name": "_medicalCondition",
          "type": "uint8"
        },
        {
          "internalType": "string",
          "name": "_phoneNumber",
          "type": "string"
        },
        {
          "internalType": "uint256",
          "name": "_pinCode",
          "type": "uint256"
        },
        {
          "internalType": "string",
          "name": "_educationQualification",
          "type": "string"
        },
        {
          "internalType": "string",
          "name": "_nativeCountry",
          "type": "string"
        }
      ],
      "name": "addDetails",
      "outputs": [],
      "stateMutability": "nonpayable",
      "type": "function"
    },
    {
      "inputs": [
        {
          "internalType": "string",
          "name": "_firstName",
          "type": "string"
        },
        {
          "internalType": "string",
          "name": "_lastName",
          "type": "string"
        },
        {
          "internalType": "string",
          "name": "_email",
          "type": "string"
        }
      ],
      "name": "updatePerson",
      "outputs": [],
      "stateMutability": "nonpayable",
      "type": "function"
    },
    {
      "inputs": [
        {
          "internalType": "string",
          "name": "_income",
          "type": "string"
        },
        {
          "internalType": "uint256",
          "name": "_dob",
          "type": "uint256"
        },
        {
          "internalType": "enum Validator.PhysicalStatus",
          "name": "_medicalCondition",
          "type": "uint8"
        },
        {
          "internalType": "string",
          "name": "_phoneNumber",
          "type": "string"
        },
        {
          "internalType": "string",
          "name": "_educationQualification",
          "type": "string"
        },
        {
          "internalType": "string",
          "name": "_nativeCountry",
          "type": "string"
        }
      ],
      "name": "updateDetails",
      "outputs": [],
      "stateMutability": "nonpayable",
      "type": "function"
    },
    {
      "inputs": [
        {
          "internalType": "address",
          "name": "_personAddress",
          "type": "address"
        }
      ],
      "name": "verifyPerson",
      "outputs": [],
      "stateMutability": "nonpayable",
      "type": "function"
    },
    {
      "inputs": [
        {
          "internalType": "address",
          "name": "beneficiaryAddress",
          "type": "address"
        }
      ],
      "name": "approveBenefits",
      "outputs": [
        {
          "internalType": "uint256",
          "name": "",
          "type": "uint256"
        }
      ],
      "stateMutability": "nonpayable",
      "type": "function"
    },
    {
      "inputs": [],
      "name": "isAdmin",
      "outputs": [
        {
          "internalType": "bool",
          "name": "",
          "type": "bool"
        }
      ],
      "stateMutability": "nonpayable",
      "type": "function"
    }
  ],
  "bytecode": "0x60806040526000805560405180604001604052807324475e90af9e19c7c430e8fc7df60911b44e031f73ffffffffffffffffffffffffffffffffffffffff1673ffffffffffffffffffffffffffffffffffffffff168152602001738cff7d9c34448e5963d74c9fd8825c9ca0b41ec773ffffffffffffffffffffffffffffffffffffffff1673ffffffffffffffffffffffffffffffffffffffff168152506001906002620000af929190620000c4565b50348015620000bd57600080fd5b5062000172565b82805482825590600052602060002090810192821562000140579160200282015b828111156200013f5782518260006101000a81548173ffffffffffffffffffffffffffffffffffffffff021916908373ffffffffffffffffffffffffffffffffffffffff16021790555091602001919060010190620000e5565b5b5090506200014f919062000153565b5090565b5b808211156200016e57600081600090555060010162000154565b5090565b611c6680620001826000396000f3fe608060405234801561001057600080fd5b50600436106100b45760003560e01c8063598afbf411610071578063598afbf414610190578063703dbb5f146101ac57806383ea54c6146101c8578063a832bbae146101fe578063b6db75a01461022e578063c1e0f1bf1461024c576100b4565b80630502af80146100b957806307de9735146100d5578063267c68e01461010a5780632e3c36c0146101285780632faeb9fc1461014457806330d9112014610160575b600080fd5b6100d360048036038101906100ce919061138f565b61027e565b005b6100ef60048036038101906100ea9190611362565b6103e3565b60405161010196959493929190611801565b60405180910390f35b6101126105d1565b60405161011f91906117e6565b60405180910390f35b610142600480360381019061013d9190611533565b6105d7565b005b61015e60048036038101906101599190611362565b61077a565b005b61017a60048036038101906101759190611645565b61086f565b60405161018791906116e7565b60405180910390f35b6101aa60048036038101906101a59190611436565b6108a2565b005b6101c660048036038101906101c1919061138f565b610b12565b005b6101e260048036038101906101dd9190611362565b610c97565b6040516101f5979695949392919061171d565b60405180910390f35b61021860048036038101906102139190611362565b610f06565b60405161022591906117e6565b60405180910390f35b6102366110b1565b6040516102439190611702565b60405180910390f35b61026660048036038101906102619190611645565b61115e565b604051610275939291906117a8565b60405180910390f35b82600260003373ffffffffffffffffffffffffffffffffffffffff1673ffffffffffffffffffffffffffffffffffffffff16815260200190815260200160002060010190805190602001906102d4929190611210565b5081600260003373ffffffffffffffffffffffffffffffffffffffff1673ffffffffffffffffffffffffffffffffffffffff168152602001908152602001600020600201908051906020019061032b929190611210565b5080600260003373ffffffffffffffffffffffffffffffffffffffff1673ffffffffffffffffffffffffffffffffffffffff1681526020019081526020016000206003019080519060200190610382929190611210565b506000600260003373ffffffffffffffffffffffffffffffffffffffff1673ffffffffffffffffffffffffffffffffffffffff16815260200190815260200160002060040160006101000a81548160ff021916908315150217905550505050565b600260205280600052604060002060009150905080600001549080600101805461040c90611a22565b80601f016020809104026020016040519081016040528092919081815260200182805461043890611a22565b80156104855780601f1061045a57610100808354040283529160200191610485565b820191906000526020600020905b81548152906001019060200180831161046857829003601f168201915b50505050509080600201805461049a90611a22565b80601f01602080910402602001604051908101604052809291908181526020018280546104c690611a22565b80156105135780601f106104e857610100808354040283529160200191610513565b820191906000526020600020905b8154815290600101906020018083116104f657829003601f168201915b50505050509080600301805461052890611a22565b80601f016020809104026020016040519081016040528092919081815260200182805461055490611a22565b80156105a15780601f10610576576101008083540402835291602001916105a1565b820191906000526020600020905b81548152906001019060200180831161058457829003601f168201915b5050505050908060040160009054906101000a900460ff16908060040160019054906101000a900460ff16905086565b60005481565b6000600260003373ffffffffffffffffffffffffffffffffffffffff1673ffffffffffffffffffffffffffffffffffffffff16815260200190815260200160002060040160006101000a81548160ff0219169083151502179055506040518060e0016040528088815260200187815260200186600281111561065c5761065b611afd565b5b815260200185815260200183815260200184815260200182815250600360003373ffffffffffffffffffffffffffffffffffffffff1673ffffffffffffffffffffffffffffffffffffffff16815260200190815260200160002060008201518160000190805190602001906106d2929190611210565b506020820151816001015560408201518160020160006101000a81548160ff0219169083600281111561070857610707611afd565b5b02179055506060820151816003019080519060200190610729929190611210565b506080820151816004019080519060200190610746929190611210565b5060a0820151816005015560c082015181600601908051906020019061076d929190611210565b5090505050505050505050565b60005b60018054905081101561086b576001818154811061079e5761079d611b5b565b5b9060005260206000200160009054906101000a900473ffffffffffffffffffffffffffffffffffffffff1673ffffffffffffffffffffffffffffffffffffffff163373ffffffffffffffffffffffffffffffffffffffff161415610858576001600260008473ffffffffffffffffffffffffffffffffffffffff1673ffffffffffffffffffffffffffffffffffffffff16815260200190815260200160002060040160006101000a81548160ff0219169083151502179055505b808061086390611a85565b91505061077d565b5050565b60046020528060005260406000206000915054906101000a900473ffffffffffffffffffffffffffffffffffffffff1681565b6000600260003373ffffffffffffffffffffffffffffffffffffffff1673ffffffffffffffffffffffffffffffffffffffff16815260200190815260200160002060040160006101000a81548160ff02191690831515021790555085600360003373ffffffffffffffffffffffffffffffffffffffff1673ffffffffffffffffffffffffffffffffffffffff1681526020019081526020016000206000019080519060200190610953929190611210565b5084600360003373ffffffffffffffffffffffffffffffffffffffff1673ffffffffffffffffffffffffffffffffffffffff1681526020019081526020016000206001018190555083600360003373ffffffffffffffffffffffffffffffffffffffff1673ffffffffffffffffffffffffffffffffffffffff16815260200190815260200160002060020160006101000a81548160ff02191690836002811115610a00576109ff611afd565b5b021790555082600360003373ffffffffffffffffffffffffffffffffffffffff1673ffffffffffffffffffffffffffffffffffffffff1681526020019081526020016000206003019080519060200190610a5b929190611210565b5081600360003373ffffffffffffffffffffffffffffffffffffffff1673ffffffffffffffffffffffffffffffffffffffff1681526020019081526020016000206004019080519060200190610ab2929190611210565b5080600360003373ffffffffffffffffffffffffffffffffffffffff1673ffffffffffffffffffffffffffffffffffffffff1681526020019081526020016000206006019080519060200190610b09929190611210565b50505050505050565b6001600054610b2191906118e9565b60008190555033600460008054815260200190815260200160002060006101000a81548173ffffffffffffffffffffffffffffffffffffffff021916908373ffffffffffffffffffffffffffffffffffffffff1602179055506040518060c00160405280600054815260200184815260200183815260200182815260200160001515815260200160001515815250600260003373ffffffffffffffffffffffffffffffffffffffff1673ffffffffffffffffffffffffffffffffffffffff168152602001908152602001600020600082015181600001556020820151816001019080519060200190610c14929190611210565b506040820151816002019080519060200190610c31929190611210565b506060820151816003019080519060200190610c4e929190611210565b5060808201518160040160006101000a81548160ff02191690831515021790555060a08201518160040160016101000a81548160ff021916908315150217905550905050505050565b6003602052806000526040600020600091509050806000018054610cba90611a22565b80601f0160208091040260200160405190810160405280929190818152602001828054610ce690611a22565b8015610d335780601f10610d0857610100808354040283529160200191610d33565b820191906000526020600020905b815481529060010190602001808311610d1657829003601f168201915b5050505050908060010154908060020160009054906101000a900460ff1690806003018054610d6190611a22565b80601f0160208091040260200160405190810160405280929190818152602001828054610d8d90611a22565b8015610dda5780601f10610daf57610100808354040283529160200191610dda565b820191906000526020600020905b815481529060010190602001808311610dbd57829003601f168201915b505050505090806004018054610def90611a22565b80601f0160208091040260200160405190810160405280929190818152602001828054610e1b90611a22565b8015610e685780601f10610e3d57610100808354040283529160200191610e68565b820191906000526020600020905b815481529060010190602001808311610e4b57829003601f168201915b505050505090806005015490806006018054610e8390611a22565b80601f0160208091040260200160405190810160405280929190818152602001828054610eaf90611a22565b8015610efc5780601f10610ed157610100808354040283529160200191610efc565b820191906000526020600020905b815481529060010190602001808311610edf57829003601f168201915b5050505050905087565b6000801515600260008473ffffffffffffffffffffffffffffffffffffffff1673ffffffffffffffffffffffffffffffffffffffff16815260200190815260200160002060040160009054906101000a900460ff1615151415610f6c57600090506110ac565b60006002811115610f8057610f7f611afd565b5b600360008473ffffffffffffffffffffffffffffffffffffffff1673ffffffffffffffffffffffffffffffffffffffff16815260200190815260200160002060020160009054906101000a900460ff166002811115610fe257610fe1611afd565b5b1415610ff157600090506110ac565b6000600360008473ffffffffffffffffffffffffffffffffffffffff1673ffffffffffffffffffffffffffffffffffffffff168152602001908152602001600020600501549050600060056000838152602001908152602001600020600201549050600081600360008773ffffffffffffffffffffffffffffffffffffffff1673ffffffffffffffffffffffffffffffffffffffff168152602001908152602001600020600501546110a3919061193f565b90508093505050505b919050565b600080600090505b60018054905081101561115557600181815481106110da576110d9611b5b565b5b9060005260206000200160009054906101000a900473ffffffffffffffffffffffffffffffffffffffff1673ffffffffffffffffffffffffffffffffffffffff163373ffffffffffffffffffffffffffffffffffffffff16141561114257600191505061115b565b808061114d90611a85565b9150506110b9565b50600090505b90565b600560205280600052604060002060009150905080600001805461118190611a22565b80601f01602080910402602001604051908101604052809291908181526020018280546111ad90611a22565b80156111fa5780601f106111cf576101008083540402835291602001916111fa565b820191906000526020600020905b8154815290600101906020018083116111dd57829003601f168201915b5050505050908060010154908060020154905083565b82805461121c90611a22565b90600052602060002090601f01602090048101928261123e5760008555611285565b82601f1061125757805160ff1916838001178555611285565b82800160010185558215611285579182015b82811115611284578251825591602001919060010190611269565b5b5090506112929190611296565b5090565b5b808211156112af576000816000905550600101611297565b5090565b60006112c66112c18461189c565b611877565b9050828152602081018484840111156112e2576112e1611bbe565b5b6112ed8482856119e0565b509392505050565b60008135905061130481611bf2565b92915050565b60008135905061131981611c09565b92915050565b600082601f83011261133457611333611bb9565b5b81356113448482602086016112b3565b91505092915050565b60008135905061135c81611c19565b92915050565b60006020828403121561137857611377611bc8565b5b6000611386848285016112f5565b91505092915050565b6000806000606084860312156113a8576113a7611bc8565b5b600084013567ffffffffffffffff8111156113c6576113c5611bc3565b5b6113d28682870161131f565b935050602084013567ffffffffffffffff8111156113f3576113f2611bc3565b5b6113ff8682870161131f565b925050604084013567ffffffffffffffff8111156114205761141f611bc3565b5b61142c8682870161131f565b9150509250925092565b60008060008060008060c0878903121561145357611452611bc8565b5b600087013567ffffffffffffffff81111561147157611470611bc3565b5b61147d89828a0161131f565b965050602061148e89828a0161134d565b955050604061149f89828a0161130a565b945050606087013567ffffffffffffffff8111156114c0576114bf611bc3565b5b6114cc89828a0161131f565b935050608087013567ffffffffffffffff8111156114ed576114ec611bc3565b5b6114f989828a0161131f565b92505060a087013567ffffffffffffffff81111561151a57611519611bc3565b5b61152689828a0161131f565b9150509295509295509295565b600080600080600080600060e0888a03121561155257611551611bc8565b5b600088013567ffffffffffffffff8111156115705761156f611bc3565b5b61157c8a828b0161131f565b975050602061158d8a828b0161134d565b965050604061159e8a828b0161130a565b955050606088013567ffffffffffffffff8111156115bf576115be611bc3565b5b6115cb8a828b0161131f565b94505060806115dc8a828b0161134d565b93505060a088013567ffffffffffffffff8111156115fd576115fc611bc3565b5b6116098a828b0161131f565b92505060c088013567ffffffffffffffff81111561162a57611629611bc3565b5b6116368a828b0161131f565b91505092959891949750929550565b60006020828403121561165b5761165a611bc8565b5b60006116698482850161134d565b91505092915050565b61167b81611973565b82525050565b61168a81611985565b82525050565b611699816119ce565b82525050565b60006116aa826118cd565b6116b481856118d8565b93506116c48185602086016119ef565b6116cd81611bcd565b840191505092915050565b6116e1816119c4565b82525050565b60006020820190506116fc6000830184611672565b92915050565b60006020820190506117176000830184611681565b92915050565b600060e0820190508181036000830152611737818a61169f565b905061174660208301896116d8565b6117536040830188611690565b8181036060830152611765818761169f565b90508181036080830152611779818661169f565b905061178860a08301856116d8565b81810360c083015261179a818461169f565b905098975050505050505050565b600060608201905081810360008301526117c2818661169f565b90506117d160208301856116d8565b6117de60408301846116d8565b949350505050565b60006020820190506117fb60008301846116d8565b92915050565b600060c08201905061181660008301896116d8565b8181036020830152611828818861169f565b9050818103604083015261183c818761169f565b90508181036060830152611850818661169f565b905061185f6080830185611681565b61186c60a0830184611681565b979650505050505050565b6000611881611892565b905061188d8282611a54565b919050565b6000604051905090565b600067ffffffffffffffff8211156118b7576118b6611b8a565b5b6118c082611bcd565b9050602081019050919050565b600081519050919050565b600082825260208201905092915050565b60006118f4826119c4565b91506118ff836119c4565b9250827fffffffffffffffffffffffffffffffffffffffffffffffffffffffffffffffff0382111561193457611933611ace565b5b828201905092915050565b600061194a826119c4565b9150611955836119c4565b92508282101561196857611967611ace565b5b828203905092915050565b600061197e826119a4565b9050919050565b60008115159050919050565b600081905061199f82611bde565b919050565b600073ffffffffffffffffffffffffffffffffffffffff82169050919050565b6000819050919050565b60006119d982611991565b9050919050565b82818337600083830152505050565b60005b83811015611a0d5780820151818401526020810190506119f2565b83811115611a1c576000848401525b50505050565b60006002820490506001821680611a3a57607f821691505b60208210811415611a4e57611a4d611b2c565b5b50919050565b611a5d82611bcd565b810181811067ffffffffffffffff82111715611a7c57611a7b611b8a565b5b80604052505050565b6000611a90826119c4565b91507fffffffffffffffffffffffffffffffffffffffffffffffffffffffffffffffff821415611ac357611ac2611ace565b5b600182019050919050565b7f4e487b7100000000000000000000000000000000000000000000000000000000600052601160045260246000fd5b7f4e487b7100000000000000000000000000000000000000000000000000000000600052602160045260246000fd5b7f4e487b7100000000000000000000000000000000000000000000000000000000600052602260045260246000fd5b7f4e487b7100000000000000000000000000000000000000000000000000000000600052603260045260246000fd5b7f4e487b7100000000000000000000000000000000000000000000000000000000600052604160045260246000fd5b600080fd5b600080fd5b600080fd5b600080fd5b6000601f19601f8301169050919050565b60038110611bef57611bee611afd565b5b50565b611bfb81611973565b8114611c0657600080fd5b50565b60038110611c1657600080fd5b50565b611c22816119c4565b8114611c2d57600080fd5b5056fea2646970667358221220b0fb05abc9ff3a3570e2a029e45c5bed733c6e211fb6e75e317ca722df05fed664736f6c63430008050033",
  "immutableReferences": {},
  "source": "pragma solidity ^0.8.5;\n\ncontract Validator {\n    // ENUMS for physicalStatus\n    enum PhysicalStatus {NORMAL, PARTIALLY_PHYSICALLY_CHALLENGED, COMPLETELY_PHYSICALLY_CHALLENGED}\n\n    // Keeping the count of the people so that we know how many persons are registered.\n    uint public peopleCount = 0;\n\n    // Array of whitelisted addresses.\n    address[] whiteListedAddresses = [0x24475E90aF9E19C7c430e8fC7dF60911b44e031F, 0x8cFf7D9C34448e5963d74c9fD8825C9ca0b41Ec7];\n\n    // The person blueprint.\n    struct Person {\n        uint id; // Unique identifier for the person to access.\n        string firstName; // First Name of the person.\n        string lastName; // Last Name of the person.\n        string email; // Email of the person.\n        bool verified; // Verified \n        bool benefitsGiven; // Verified \n    }\n\n    struct PersonDetails {\n        string income; // in cents\n        uint dob; // Date of birth, in integer UNIX time\n        PhysicalStatus medicalCondition; // Medical condition if any \n        string phoneNumber; // Phone number \n        string educationQualification; // Educational Qualification \n        uint pinCode; // Educational Qualification \n        string nativeCountry; // Native country\n    }\n    // City Average Living Expense\n    struct CityExpense {\n        string name; // Name of the city\n        uint pinCode; // pincode of the area\n        uint averageExpense; // Average expense of the city.\n    }\n\n    // Person mapping, to access an specific person.\n    mapping(address => Person) public people;\n    mapping(address => PersonDetails) public peopleDetails;\n    mapping(uint => address) public peopleAddress;\n\n    // Cities mapping from pinCodes.\n    mapping(uint => CityExpense) public pinCodes;\n\n\n    // Creator Person.\n    function createPerson (\n        string memory _firstName,\n        string memory _lastName,\n        string memory _email\n    ) public {\n        peopleCount = peopleCount + 1;\n        peopleAddress[peopleCount] = msg.sender;\n        people[msg.sender] = Person(\n            peopleCount,\n            _firstName,\n            _lastName,\n            _email,\n            false,\n            false\n        );\n    }\n\n    // Add details \n    function addDetails (\n        string memory _income,\n        uint _dob,\n        PhysicalStatus _medicalCondition,\n        string memory _phoneNumber,\n        uint _pinCode,\n        string memory _educationQualification,\n        string memory _nativeCountry\n    ) public {\n        people[msg.sender].verified = false;\n        peopleDetails[msg.sender] = PersonDetails(\n            _income,\n            _dob,\n            _medicalCondition,\n            _phoneNumber,\n            _educationQualification,\n            _pinCode,\n            _nativeCountry\n        );\n    }\n\n    // Update Person.\n    function updatePerson (\n        string memory _firstName,\n        string memory _lastName,\n        string memory _email\n    ) public {\n        people[msg.sender].firstName = _firstName;\n        people[msg.sender].lastName = _lastName;\n        people[msg.sender].email = _email;\n        people[msg.sender].verified = false;\n    }\n    \n    // Update details \n    function updateDetails (\n        string memory _income,\n        uint _dob,\n        PhysicalStatus _medicalCondition,\n        string memory _phoneNumber,\n        string memory _educationQualification,\n        string memory _nativeCountry\n    ) public {\n        people[msg.sender].verified = false;\n        peopleDetails[msg.sender].income = _income;\n        peopleDetails[msg.sender].dob = _dob;\n        peopleDetails[msg.sender].medicalCondition = _medicalCondition;\n        peopleDetails[msg.sender].phoneNumber = _phoneNumber;\n        peopleDetails[msg.sender].educationQualification = _educationQualification;\n        peopleDetails[msg.sender].nativeCountry = _nativeCountry;\n    }\n\n    // Verify Person.\n    function verifyPerson (\n        address _personAddress\n    ) public {\n        for (uint i = 0; i < whiteListedAddresses.length; i++) {\n            if (msg.sender == whiteListedAddresses[i]) {\n                people[_personAddress].verified = true;\n            }\n        }\n    }\n\n    function approveBenefits (\n        address beneficiaryAddress\n    ) public returns(uint) {\n        // 1. Find a location of the person and get the average living expenses\n        // 2. Find the physical status, if normal return\n        // 3. Find the different in their income and \n        if  (people[beneficiaryAddress].verified == false) {\n            return 0;\n        }\n\n        if (peopleDetails[beneficiaryAddress].medicalCondition == PhysicalStatus.NORMAL) {\n            return 0;\n        }\n\n        uint pinCode = peopleDetails[beneficiaryAddress].pinCode;\n        uint averageExpense = pinCodes[pinCode].averageExpense;\n        \n        uint differentInExpense = peopleDetails[beneficiaryAddress].pinCode - averageExpense;\n        return differentInExpense;\n    }\n\n    function isAdmin () public returns(bool) {\n        for (uint i = 0; i < whiteListedAddresses.length; i++) {\n            if (msg.sender == whiteListedAddresses[i]) {\n                return true;\n            }\n        }\n        return false;\n    }\n}\n",
  "sourcePath": "/Users/sraman/projects/crypto-validator/contracts/Validator.sol",
  "compiler": {
    "name": "solc",
    "version": "0.8.5+commit.a4f2e591.Emscripten.clang"
  },
  "schemaVersion": "3.4.0",
  "updatedAt": "2021-07-05T21:40:44.185Z",
  "networkType": "ethereum",
  "devdoc": {
    "kind": "dev",
    "methods": {},
    "version": 1
  },
  "userdoc": {
    "kind": "user",
    "methods": {},
    "version": 1
  }
}