{
  "contractName": "Validator",
  "abi": [
    {
      "inputs": [],
      "stateMutability": "nonpayable",
      "type": "constructor"
    },
    {
      "inputs": [],
      "name": "bankBalance",
      "outputs": [
        {
          "internalType": "uint256",
          "name": "",
          "type": "uint256"
        }
      ],
      "stateMutability": "view",
      "type": "function",
      "constant": true
    },
    {
      "inputs": [
        {
          "internalType": "address",
          "name": "",
          "type": "address"
        }
      ],
      "name": "people",
      "outputs": [
        {
          "internalType": "uint256",
          "name": "id",
          "type": "uint256"
        },
        {
          "internalType": "string",
          "name": "firstName",
          "type": "string"
        },
        {
          "internalType": "string",
          "name": "lastName",
          "type": "string"
        },
        {
          "internalType": "string",
          "name": "email",
          "type": "string"
        },
        {
          "internalType": "bool",
          "name": "verified",
          "type": "bool"
        },
        {
          "internalType": "bool",
          "name": "benefitsTransferred",
          "type": "bool"
        }
      ],
      "stateMutability": "view",
      "type": "function",
      "constant": true
    },
    {
      "inputs": [
        {
          "internalType": "uint256",
          "name": "",
          "type": "uint256"
        }
      ],
      "name": "peopleAddress",
      "outputs": [
        {
          "internalType": "address",
          "name": "",
          "type": "address"
        }
      ],
      "stateMutability": "view",
      "type": "function",
      "constant": true
    },
    {
      "inputs": [],
      "name": "peopleCount",
      "outputs": [
        {
          "internalType": "uint256",
          "name": "",
          "type": "uint256"
        }
      ],
      "stateMutability": "view",
      "type": "function",
      "constant": true
    },
    {
      "inputs": [
        {
          "internalType": "address",
          "name": "",
          "type": "address"
        }
      ],
      "name": "peopleDetails",
      "outputs": [
        {
          "internalType": "uint256",
          "name": "income",
          "type": "uint256"
        },
        {
          "internalType": "int256",
          "name": "dob",
          "type": "int256"
        },
        {
          "internalType": "enum Validator.PhysicalStatus",
          "name": "medicalCondition",
          "type": "uint8"
        },
        {
          "internalType": "string",
          "name": "phoneNumber",
          "type": "string"
        },
        {
          "internalType": "string",
          "name": "educationQualification",
          "type": "string"
        },
        {
          "internalType": "uint256",
          "name": "pinCode",
          "type": "uint256"
        },
        {
          "internalType": "string",
          "name": "nativeCountry",
          "type": "string"
        }
      ],
      "stateMutability": "view",
      "type": "function",
      "constant": true
    },
    {
      "inputs": [
        {
          "internalType": "uint256",
          "name": "",
          "type": "uint256"
        }
      ],
      "name": "pinCodes",
      "outputs": [
        {
          "internalType": "string",
          "name": "name",
          "type": "string"
        },
        {
          "internalType": "uint256",
          "name": "pinCode",
          "type": "uint256"
        },
        {
          "internalType": "uint256",
          "name": "averageExpense",
          "type": "uint256"
        }
      ],
      "stateMutability": "view",
      "type": "function",
      "constant": true
    },
    {
      "inputs": [
        {
          "internalType": "string",
          "name": "_firstName",
          "type": "string"
        },
        {
          "internalType": "string",
          "name": "_lastName",
          "type": "string"
        },
        {
          "internalType": "string",
          "name": "_email",
          "type": "string"
        }
      ],
      "name": "createPerson",
      "outputs": [],
      "stateMutability": "nonpayable",
      "type": "function"
    },
    {
      "inputs": [
        {
          "internalType": "uint256",
          "name": "_income",
          "type": "uint256"
        },
        {
          "internalType": "int256",
          "name": "_dob",
          "type": "int256"
        },
        {
          "internalType": "enum Validator.PhysicalStatus",
          "name": "_medicalCondition",
          "type": "uint8"
        },
        {
          "internalType": "string",
          "name": "_phoneNumber",
          "type": "string"
        },
        {
          "internalType": "uint256",
          "name": "_pinCode",
          "type": "uint256"
        },
        {
          "internalType": "string",
          "name": "_educationQualification",
          "type": "string"
        },
        {
          "internalType": "string",
          "name": "_nativeCountry",
          "type": "string"
        }
      ],
      "name": "addDetails",
      "outputs": [],
      "stateMutability": "nonpayable",
      "type": "function"
    },
    {
      "inputs": [
        {
          "internalType": "string",
          "name": "_firstName",
          "type": "string"
        },
        {
          "internalType": "string",
          "name": "_lastName",
          "type": "string"
        },
        {
          "internalType": "string",
          "name": "_email",
          "type": "string"
        }
      ],
      "name": "updatePerson",
      "outputs": [],
      "stateMutability": "nonpayable",
      "type": "function"
    },
    {
      "inputs": [
        {
          "internalType": "uint256",
          "name": "_income",
          "type": "uint256"
        },
        {
          "internalType": "int256",
          "name": "_dob",
          "type": "int256"
        },
        {
          "internalType": "enum Validator.PhysicalStatus",
          "name": "_medicalCondition",
          "type": "uint8"
        },
        {
          "internalType": "string",
          "name": "_phoneNumber",
          "type": "string"
        },
        {
          "internalType": "uint256",
          "name": "_pinCode",
          "type": "uint256"
        },
        {
          "internalType": "string",
          "name": "_educationQualification",
          "type": "string"
        },
        {
          "internalType": "string",
          "name": "_nativeCountry",
          "type": "string"
        }
      ],
      "name": "updateDetails",
      "outputs": [],
      "stateMutability": "nonpayable",
      "type": "function"
    },
    {
      "inputs": [
        {
          "internalType": "address",
          "name": "_personAddress",
          "type": "address"
        }
      ],
      "name": "verifyPerson",
      "outputs": [],
      "stateMutability": "nonpayable",
      "type": "function"
    },
    {
      "inputs": [
        {
          "internalType": "address",
          "name": "_personAddress",
          "type": "address"
        }
      ],
      "name": "unVerifyPerson",
      "outputs": [],
      "stateMutability": "nonpayable",
      "type": "function"
    },
    {
      "inputs": [
        {
          "internalType": "address",
          "name": "beneficiaryAddress",
          "type": "address"
        }
      ],
      "name": "isEligible",
      "outputs": [
        {
          "internalType": "uint256",
          "name": "",
          "type": "uint256"
        }
      ],
      "stateMutability": "view",
      "type": "function",
      "constant": true
    },
    {
      "inputs": [
        {
          "internalType": "address",
          "name": "beneficiaryAddress",
          "type": "address"
        }
      ],
      "name": "transferBenefits",
      "outputs": [],
      "stateMutability": "nonpayable",
      "type": "function"
    },
    {
      "inputs": [],
      "name": "isAdmin",
      "outputs": [
        {
          "internalType": "bool",
          "name": "",
          "type": "bool"
        }
      ],
      "stateMutability": "view",
      "type": "function",
      "constant": true
    },
    {
      "inputs": [
        {
          "internalType": "int256",
          "name": "dob",
          "type": "int256"
        }
      ],
      "name": "isSeniorCitizen",
      "outputs": [
        {
          "internalType": "bool",
          "name": "",
          "type": "bool"
        }
      ],
      "stateMutability": "view",
      "type": "function",
      "constant": true
    }
  ],
  "bytecode": "0x608060405260008055629896806001556501dd9533cc4060025560405180604001604052807324475e90af9e19c7c430e8fc7df60911b44e031f73ffffffffffffffffffffffffffffffffffffffff1673ffffffffffffffffffffffffffffffffffffffff168152602001738cff7d9c34448e5963d74c9fd8825c9ca0b41ec773ffffffffffffffffffffffffffffffffffffffff1673ffffffffffffffffffffffffffffffffffffffff168152506003906002620000c0929190620002b8565b50348015620000ce57600080fd5b5060405180606001604052806040518060400160405280600881526020017f42616e676c6f7265000000000000000000000000000000000000000000000000815250815260200162088b8181526020016127108152506007600062088b81815260200190815260200160002060008201518160000190805190602001906200015892919062000347565b50602082015181600101556040820151816002015590505060405180606001604052806040518060400160405280600681526020017f4d79736f7265000000000000000000000000000000000000000000000000000081525081526020016208b2948152602001612328815250600760006208b29481526020019081526020016000206000820151816000019080519060200190620001f992919062000347565b50602082015181600101556040820151816002015590505060405180606001604052806040518060400160405280600a81526020017f4368616e646167616c750000000000000000000000000000000000000000000081525081526020016208b8318152602001611388815250600760006208b831815260200190815260200160002060008201518160000190805190602001906200029a92919062000347565b5060208201518160010155604082015181600201559050506200045c565b82805482825590600052602060002090810192821562000334579160200282015b82811115620003335782518260006101000a81548173ffffffffffffffffffffffffffffffffffffffff021916908373ffffffffffffffffffffffffffffffffffffffff16021790555091602001919060010190620002d9565b5b509050620003439190620003d8565b5090565b8280546200035590620003f7565b90600052602060002090601f016020900481019282620003795760008555620003c5565b82601f106200039457805160ff1916838001178555620003c5565b82800160010185558215620003c5579182015b82811115620003c4578251825591602001919060010190620003a7565b5b509050620003d49190620003d8565b5090565b5b80821115620003f3576000816000905550600101620003d9565b5090565b600060028204905060018216806200041057607f821691505b602082108114156200042757620004266200042d565b5b50919050565b7f4e487b7100000000000000000000000000000000000000000000000000000000600052602260045260246000fd5b6121fb806200046c6000396000f3fe608060405234801561001057600080fd5b50600436106101005760003560e01c80632faeb9fc11610097578063703dbb5f11610066578063703dbb5f146102ae57806383ea54c6146102ca578063b6db75a014610300578063c1e0f1bf1461031e57610100565b80632faeb9fc1461021657806330d911201461023257806366e305fd146102625780636a3c90b91461029257610100565b80631e5b6972116100d35780631e5b69721461018e5780632425bf71146101aa578063267c68e0146101da57806328657aa5146101f857610100565b80630502af801461010557806307de9735146101215780630ef137c4146101565780631626a35614610172575b600080fd5b61011f600480360381019061011a9190611869565b610350565b005b61013b6004803603810190610136919061180f565b6104b5565b60405161014d96959493929190611bca565b60405180910390f35b610170600480360381019061016b919061193d565b6106a3565b005b61018c6004803603810190610187919061180f565b6108f0565b005b6101a860048036038101906101a3919061193d565b610a70565b005b6101c460048036038101906101bf919061183c565b610c00565b6040516101d19190611ad2565b60405180910390f35b6101e2610c44565b6040516101ef9190611b2b565b60405180910390f35b610200610c4a565b60405161020d9190611b2b565b60405180910390f35b610230600480360381019061022b919061180f565b610c50565b005b61024c60048036038101906102479190611910565b610d45565b6040516102599190611ab7565b60405180910390f35b61027c6004803603810190610277919061180f565b610d78565b6040516102899190611b2b565b60405180910390f35b6102ac60048036038101906102a7919061180f565b6110e8565b005b6102c860048036038101906102c39190611869565b6111dd565b005b6102e460048036038101906102df919061180f565b611362565b6040516102f79796959493929190611b46565b60405180910390f35b610308611549565b6040516103159190611ad2565b60405180910390f35b61033860048036038101906103339190611910565b6115f6565b60405161034793929190611aed565b60405180910390f35b82600460003373ffffffffffffffffffffffffffffffffffffffff1673ffffffffffffffffffffffffffffffffffffffff16815260200190815260200160002060010190805190602001906103a69291906116a8565b5081600460003373ffffffffffffffffffffffffffffffffffffffff1673ffffffffffffffffffffffffffffffffffffffff16815260200190815260200160002060020190805190602001906103fd9291906116a8565b5080600460003373ffffffffffffffffffffffffffffffffffffffff1673ffffffffffffffffffffffffffffffffffffffff16815260200190815260200160002060030190805190602001906104549291906116a8565b506000600460003373ffffffffffffffffffffffffffffffffffffffff1673ffffffffffffffffffffffffffffffffffffffff16815260200190815260200160002060040160006101000a81548160ff021916908315150217905550505050565b60046020528060005260406000206000915090508060000154908060010180546104de90611fa0565b80601f016020809104026020016040519081016040528092919081815260200182805461050a90611fa0565b80156105575780601f1061052c57610100808354040283529160200191610557565b820191906000526020600020905b81548152906001019060200180831161053a57829003601f168201915b50505050509080600201805461056c90611fa0565b80601f016020809104026020016040519081016040528092919081815260200182805461059890611fa0565b80156105e55780601f106105ba576101008083540402835291602001916105e5565b820191906000526020600020905b8154815290600101906020018083116105c857829003601f168201915b5050505050908060030180546105fa90611fa0565b80601f016020809104026020016040519081016040528092919081815260200182805461062690611fa0565b80156106735780601f1061064857610100808354040283529160200191610673565b820191906000526020600020905b81548152906001019060200180831161065657829003601f168201915b5050505050908060040160009054906101000a900460ff16908060040160019054906101000a900460ff16905086565b86600560003373ffffffffffffffffffffffffffffffffffffffff1673ffffffffffffffffffffffffffffffffffffffff1681526020019081526020016000206000018190555085600560003373ffffffffffffffffffffffffffffffffffffffff1673ffffffffffffffffffffffffffffffffffffffff1681526020019081526020016000206001018190555084600560003373ffffffffffffffffffffffffffffffffffffffff1673ffffffffffffffffffffffffffffffffffffffff16815260200190815260200160002060020160006101000a81548160ff021916908360028111156107965761079561207b565b5b021790555083600560003373ffffffffffffffffffffffffffffffffffffffff1673ffffffffffffffffffffffffffffffffffffffff16815260200190815260200160002060030190805190602001906107f19291906116a8565b5082600560003373ffffffffffffffffffffffffffffffffffffffff1673ffffffffffffffffffffffffffffffffffffffff1681526020019081526020016000206005018190555081600560003373ffffffffffffffffffffffffffffffffffffffff1673ffffffffffffffffffffffffffffffffffffffff168152602001908152602001600020600401908051906020019061088f9291906116a8565b5080600560003373ffffffffffffffffffffffffffffffffffffffff1673ffffffffffffffffffffffffffffffffffffffff16815260200190815260200160002060060190805190602001906108e69291906116a8565b5050505050505050565b60006108fb82610d78565b905060011515600460008473ffffffffffffffffffffffffffffffffffffffff1673ffffffffffffffffffffffffffffffffffffffff16815260200190815260200160002060040160009054906101000a900460ff1615151480156109605750600081115b15610a6c5760005b600380549050811015610a6a5760038181548110610989576109886120d9565b5b9060005260206000200160009054906101000a900473ffffffffffffffffffffffffffffffffffffffff1673ffffffffffffffffffffffffffffffffffffffff163373ffffffffffffffffffffffffffffffffffffffff161415610a5757816001546109f59190611eb3565b6001819055506001600460008573ffffffffffffffffffffffffffffffffffffffff1673ffffffffffffffffffffffffffffffffffffffff16815260200190815260200160002060040160016101000a81548160ff0219169083151502179055505b8080610a6290612003565b915050610968565b505b5050565b6000600460003373ffffffffffffffffffffffffffffffffffffffff1673ffffffffffffffffffffffffffffffffffffffff16815260200190815260200160002060040160006101000a81548160ff0219169083151502179055506040518060e00160405280888152602001878152602001866002811115610af557610af461207b565b5b815260200185815260200183815260200184815260200182815250600560003373ffffffffffffffffffffffffffffffffffffffff1673ffffffffffffffffffffffffffffffffffffffff168152602001908152602001600020600082015181600001556020820151816001015560408201518160020160006101000a81548160ff02191690836002811115610b8e57610b8d61207b565b5b02179055506060820151816003019080519060200190610baf9291906116a8565b506080820151816004019080519060200190610bcc9291906116a8565b5060a0820151816005015560c0820151816006019080519060200190610bf39291906116a8565b5090505050505050505050565b6000806103e842610c119190611d08565b905060008382610c219190611e1f565b9050600254811315610c3857600192505050610c3f565b6000925050505b919050565b60005481565b60015481565b60005b600380549050811015610d415760038181548110610c7457610c736120d9565b5b9060005260206000200160009054906101000a900473ffffffffffffffffffffffffffffffffffffffff1673ffffffffffffffffffffffffffffffffffffffff163373ffffffffffffffffffffffffffffffffffffffff161415610d2e576001600460008473ffffffffffffffffffffffffffffffffffffffff1673ffffffffffffffffffffffffffffffffffffffff16815260200190815260200160002060040160006101000a81548160ff0219169083151502179055505b8080610d3990612003565b915050610c53565b5050565b60066020528060005260406000206000915054906101000a900473ffffffffffffffffffffffffffffffffffffffff1681565b600080600560008473ffffffffffffffffffffffffffffffffffffffff1673ffffffffffffffffffffffffffffffffffffffff1681526020019081526020016000206040518060e001604052908160008201548152602001600182015481526020016002820160009054906101000a900460ff166002811115610dfe57610dfd61207b565b5b6002811115610e1057610e0f61207b565b5b8152602001600382018054610e2490611fa0565b80601f0160208091040260200160405190810160405280929190818152602001828054610e5090611fa0565b8015610e9d5780601f10610e7257610100808354040283529160200191610e9d565b820191906000526020600020905b815481529060010190602001808311610e8057829003601f168201915b50505050508152602001600482018054610eb690611fa0565b80601f0160208091040260200160405190810160405280929190818152602001828054610ee290611fa0565b8015610f2f5780601f10610f0457610100808354040283529160200191610f2f565b820191906000526020600020905b815481529060010190602001808311610f1257829003601f168201915b5050505050815260200160058201548152602001600682018054610f5290611fa0565b80601f0160208091040260200160405190810160405280929190818152602001828054610f7e90611fa0565b8015610fcb5780601f10610fa057610100808354040283529160200191610fcb565b820191906000526020600020905b815481529060010190602001808311610fae57829003601f168201915b505050505081525050905060006002811115610fea57610fe961207b565b5b816040015160028111156110015761100061207b565b5b14801561101857506110168160200151610c00565b155b156110275760009150506110e3565b6000600560008573ffffffffffffffffffffffffffffffffffffffff1673ffffffffffffffffffffffffffffffffffffffff1681526020019081526020016000206005015490506000600760008381526020019081526020016000206002015490506000600560008773ffffffffffffffffffffffffffffffffffffffff1673ffffffffffffffffffffffffffffffffffffffff16815260200190815260200160002060000154826110d99190611eb3565b9050809450505050505b919050565b60005b6003805490508110156111d9576003818154811061110c5761110b6120d9565b5b9060005260206000200160009054906101000a900473ffffffffffffffffffffffffffffffffffffffff1673ffffffffffffffffffffffffffffffffffffffff163373ffffffffffffffffffffffffffffffffffffffff1614156111c6576000600460008473ffffffffffffffffffffffffffffffffffffffff1673ffffffffffffffffffffffffffffffffffffffff16815260200190815260200160002060040160006101000a81548160ff0219169083151502179055505b80806111d190612003565b9150506110eb565b5050565b60016000546111ec9190611cb2565b60008190555033600660008054815260200190815260200160002060006101000a81548173ffffffffffffffffffffffffffffffffffffffff021916908373ffffffffffffffffffffffffffffffffffffffff1602179055506040518060c00160405280600054815260200184815260200183815260200182815260200160001515815260200160001515815250600460003373ffffffffffffffffffffffffffffffffffffffff1673ffffffffffffffffffffffffffffffffffffffff1681526020019081526020016000206000820151816000015560208201518160010190805190602001906112df9291906116a8565b5060408201518160020190805190602001906112fc9291906116a8565b5060608201518160030190805190602001906113199291906116a8565b5060808201518160040160006101000a81548160ff02191690831515021790555060a08201518160040160016101000a81548160ff021916908315150217905550905050505050565b60056020528060005260406000206000915090508060000154908060010154908060020160009054906101000a900460ff16908060030180546113a490611fa0565b80601f01602080910402602001604051908101604052809291908181526020018280546113d090611fa0565b801561141d5780601f106113f25761010080835404028352916020019161141d565b820191906000526020600020905b81548152906001019060200180831161140057829003601f168201915b50505050509080600401805461143290611fa0565b80601f016020809104026020016040519081016040528092919081815260200182805461145e90611fa0565b80156114ab5780601f10611480576101008083540402835291602001916114ab565b820191906000526020600020905b81548152906001019060200180831161148e57829003601f168201915b5050505050908060050154908060060180546114c690611fa0565b80601f01602080910402602001604051908101604052809291908181526020018280546114f290611fa0565b801561153f5780601f106115145761010080835404028352916020019161153f565b820191906000526020600020905b81548152906001019060200180831161152257829003601f168201915b5050505050905087565b600080600090505b6003805490508110156115ed5760038181548110611572576115716120d9565b5b9060005260206000200160009054906101000a900473ffffffffffffffffffffffffffffffffffffffff1673ffffffffffffffffffffffffffffffffffffffff163373ffffffffffffffffffffffffffffffffffffffff1614156115da5760019150506115f3565b80806115e590612003565b915050611551565b50600090505b90565b600760205280600052604060002060009150905080600001805461161990611fa0565b80601f016020809104026020016040519081016040528092919081815260200182805461164590611fa0565b80156116925780601f1061166757610100808354040283529160200191611692565b820191906000526020600020905b81548152906001019060200180831161167557829003601f168201915b5050505050908060010154908060020154905083565b8280546116b490611fa0565b90600052602060002090601f0160209004810192826116d6576000855561171d565b82601f106116ef57805160ff191683800117855561171d565b8280016001018555821561171d579182015b8281111561171c578251825591602001919060010190611701565b5b50905061172a919061172e565b5090565b5b8082111561174757600081600090555060010161172f565b5090565b600061175e61175984611c65565b611c40565b90508281526020810184848401111561177a5761177961213c565b5b611785848285611f5e565b509392505050565b60008135905061179c81612170565b92915050565b6000813590506117b181612187565b92915050565b6000813590506117c681612197565b92915050565b600082601f8301126117e1576117e0612137565b5b81356117f184826020860161174b565b91505092915050565b600081359050611809816121ae565b92915050565b60006020828403121561182557611824612146565b5b60006118338482850161178d565b91505092915050565b60006020828403121561185257611851612146565b5b6000611860848285016117b7565b91505092915050565b60008060006060848603121561188257611881612146565b5b600084013567ffffffffffffffff8111156118a05761189f612141565b5b6118ac868287016117cc565b935050602084013567ffffffffffffffff8111156118cd576118cc612141565b5b6118d9868287016117cc565b925050604084013567ffffffffffffffff8111156118fa576118f9612141565b5b611906868287016117cc565b9150509250925092565b60006020828403121561192657611925612146565b5b6000611934848285016117fa565b91505092915050565b600080600080600080600060e0888a03121561195c5761195b612146565b5b600061196a8a828b016117fa565b975050602061197b8a828b016117b7565b965050604061198c8a828b016117a2565b955050606088013567ffffffffffffffff8111156119ad576119ac612141565b5b6119b98a828b016117cc565b94505060806119ca8a828b016117fa565b93505060a088013567ffffffffffffffff8111156119eb576119ea612141565b5b6119f78a828b016117cc565b92505060c088013567ffffffffffffffff811115611a1857611a17612141565b5b611a248a828b016117cc565b91505092959891949750929550565b611a3c81611ee7565b82525050565b611a4b81611ef9565b82525050565b611a5a81611f4c565b82525050565b611a6981611f18565b82525050565b6000611a7a82611c96565b611a848185611ca1565b9350611a94818560208601611f6d565b611a9d8161214b565b840191505092915050565b611ab181611f42565b82525050565b6000602082019050611acc6000830184611a33565b92915050565b6000602082019050611ae76000830184611a42565b92915050565b60006060820190508181036000830152611b078186611a6f565b9050611b166020830185611aa8565b611b236040830184611aa8565b949350505050565b6000602082019050611b406000830184611aa8565b92915050565b600060e082019050611b5b600083018a611aa8565b611b686020830189611a60565b611b756040830188611a51565b8181036060830152611b878187611a6f565b90508181036080830152611b9b8186611a6f565b9050611baa60a0830185611aa8565b81810360c0830152611bbc8184611a6f565b905098975050505050505050565b600060c082019050611bdf6000830189611aa8565b8181036020830152611bf18188611a6f565b90508181036040830152611c058187611a6f565b90508181036060830152611c198186611a6f565b9050611c286080830185611a42565b611c3560a0830184611a42565b979650505050505050565b6000611c4a611c5b565b9050611c568282611fd2565b919050565b6000604051905090565b600067ffffffffffffffff821115611c8057611c7f612108565b5b611c898261214b565b9050602081019050919050565b600081519050919050565b600082825260208201905092915050565b6000611cbd82611f42565b9150611cc883611f42565b9250827fffffffffffffffffffffffffffffffffffffffffffffffffffffffffffffffff03821115611cfd57611cfc61204c565b5b828201905092915050565b6000611d1382611f18565b9150611d1e83611f18565b9250827f7fffffffffffffffffffffffffffffffffffffffffffffffffffffffffffffff0482116000841360008413161615611d5d57611d5c61204c565b5b817f80000000000000000000000000000000000000000000000000000000000000000583126000841260008413161615611d9a57611d9961204c565b5b827f80000000000000000000000000000000000000000000000000000000000000000582126000841360008412161615611dd757611dd661204c565b5b827f7fffffffffffffffffffffffffffffffffffffffffffffffffffffffffffffff0582126000841260008412161615611e1457611e1361204c565b5b828202905092915050565b6000611e2a82611f18565b9150611e3583611f18565b9250827f800000000000000000000000000000000000000000000000000000000000000001821260008412151615611e7057611e6f61204c565b5b827f7fffffffffffffffffffffffffffffffffffffffffffffffffffffffffffffff018213600084121615611ea857611ea761204c565b5b828203905092915050565b6000611ebe82611f42565b9150611ec983611f42565b925082821015611edc57611edb61204c565b5b828203905092915050565b6000611ef282611f22565b9050919050565b60008115159050919050565b6000819050611f138261215c565b919050565b6000819050919050565b600073ffffffffffffffffffffffffffffffffffffffff82169050919050565b6000819050919050565b6000611f5782611f05565b9050919050565b82818337600083830152505050565b60005b83811015611f8b578082015181840152602081019050611f70565b83811115611f9a576000848401525b50505050565b60006002820490506001821680611fb857607f821691505b60208210811415611fcc57611fcb6120aa565b5b50919050565b611fdb8261214b565b810181811067ffffffffffffffff82111715611ffa57611ff9612108565b5b80604052505050565b600061200e82611f42565b91507fffffffffffffffffffffffffffffffffffffffffffffffffffffffffffffffff8214156120415761204061204c565b5b600182019050919050565b7f4e487b7100000000000000000000000000000000000000000000000000000000600052601160045260246000fd5b7f4e487b7100000000000000000000000000000000000000000000000000000000600052602160045260246000fd5b7f4e487b7100000000000000000000000000000000000000000000000000000000600052602260045260246000fd5b7f4e487b7100000000000000000000000000000000000000000000000000000000600052603260045260246000fd5b7f4e487b7100000000000000000000000000000000000000000000000000000000600052604160045260246000fd5b600080fd5b600080fd5b600080fd5b600080fd5b6000601f19601f8301169050919050565b6003811061216d5761216c61207b565b5b50565b61217981611ee7565b811461218457600080fd5b50565b6003811061219457600080fd5b50565b6121a081611f18565b81146121ab57600080fd5b50565b6121b781611f42565b81146121c257600080fd5b5056fea2646970667358221220e3ea06a9c5a081188931affdcc55dc3fc4ebb426bd0b6ee72d41fe4b832177d764736f6c63430008050033",
  "immutableReferences": {},
  "source": "pragma solidity ^0.8.5;\n\ncontract Validator {\n    // ENUMS for physicalStatus\n    enum PhysicalStatus {NORMAL, PARTIALLY_PHYSICALLY_CHALLENGED, COMPLETELY_PHYSICALLY_CHALLENGED}\n\n    // Keeping the count of the people so that we know how many persons are registered.\n    uint public peopleCount = 0;\n\n    // Govt bank balance;\n    uint public bankBalance = 10000000;\n    \n    // Threshold of 65 years, UNIX timestamp\n    int threshold = 2051202600 * 1000;\n\n\n    // Array of whitelisted addresses.\n    address[] whiteListedAddresses = [0x24475E90aF9E19C7c430e8fC7dF60911b44e031F, 0x8cFf7D9C34448e5963d74c9fD8825C9ca0b41Ec7];\n\n    // The person blueprint.\n    struct Person {\n        uint id; // Unique identifier for the person to access.\n        string firstName; // First Name of the person.\n        string lastName; // Last Name of the person.\n        string email; // Email of the person.\n        bool verified; // Verified \n        bool benefitsTransferred; // Verified\n    }\n\n    struct PersonDetails {\n        uint income; // in cents\n        int dob; // Date of birth, in integer UNIX time\n        PhysicalStatus medicalCondition; // Medical condition if any \n        string phoneNumber; // Phone number \n        string educationQualification; // Educational Qualification \n        uint pinCode; // Educational Qualification \n        string nativeCountry; // Native country\n    }\n    // City Average Living Expense\n    struct CityExpense {\n        string name; // Name of the city\n        uint pinCode; // pincode of the area\n        uint averageExpense; // Average expense of the city.\n    }\n\n    // Person mapping, to access an specific person.\n    mapping(address => Person) public people;\n    mapping(address => PersonDetails) public peopleDetails;\n    mapping(uint => address) public peopleAddress;\n\n    // Cities mapping from pinCodes.\n    mapping(uint => CityExpense) public pinCodes;\n\n    constructor () public{\n        // Adding cities\n        pinCodes[560001] = CityExpense(\"Banglore\", 560001, 10000);\n        pinCodes[570004] = CityExpense(\"Mysore\", 570004, 9000);\n        pinCodes[571441] = CityExpense(\"Chandagalu\", 571441, 5000);\n    }\n\n\n    // Creator Person.\n    function createPerson (\n        string memory _firstName,\n        string memory _lastName,\n        string memory _email\n    ) public {\n        peopleCount = peopleCount + 1;\n        peopleAddress[peopleCount] = msg.sender;\n        people[msg.sender] = Person(\n            peopleCount,\n            _firstName,\n            _lastName,\n            _email,\n            false,\n            false\n        );\n    }\n\n    // Add details \n    function addDetails (\n        uint _income,\n        int _dob,\n        PhysicalStatus _medicalCondition,\n        string memory _phoneNumber,\n        uint _pinCode,\n        string memory _educationQualification,\n        string memory _nativeCountry\n    ) public {\n        people[msg.sender].verified = false;\n        peopleDetails[msg.sender] = PersonDetails(\n            _income,\n            _dob,\n            _medicalCondition,\n            _phoneNumber,\n            _educationQualification,\n            _pinCode,\n            _nativeCountry\n        );\n    }\n\n    // Update Person.\n    function updatePerson (\n        string memory _firstName,\n        string memory _lastName,\n        string memory _email\n    ) public {\n        people[msg.sender].firstName = _firstName;\n        people[msg.sender].lastName = _lastName;\n        people[msg.sender].email = _email;\n        people[msg.sender].verified = false;\n    }\n    \n    // Update details \n    function updateDetails (\n        uint _income,\n        int _dob,\n        PhysicalStatus _medicalCondition,\n        string memory _phoneNumber,\n        uint _pinCode,\n        string memory _educationQualification,\n        string memory _nativeCountry\n    ) public {\n        peopleDetails[msg.sender].income = _income;\n        peopleDetails[msg.sender].dob = _dob;\n        peopleDetails[msg.sender].medicalCondition = _medicalCondition;\n        peopleDetails[msg.sender].phoneNumber = _phoneNumber;\n        peopleDetails[msg.sender].pinCode = _pinCode;\n        peopleDetails[msg.sender].educationQualification = _educationQualification;\n        peopleDetails[msg.sender].nativeCountry = _nativeCountry;\n    }\n\n    // Verify Person.\n    function verifyPerson (\n        address _personAddress\n    ) public {\n        for (uint i = 0; i < whiteListedAddresses.length; i++) {\n            if (msg.sender == whiteListedAddresses[i]) {\n                people[_personAddress].verified = true;\n            }\n        }\n    }\n\n\n    // Un Verify Person.\n    function unVerifyPerson (\n        address _personAddress\n    ) public {\n        for (uint i = 0; i < whiteListedAddresses.length; i++) {\n            if (msg.sender == whiteListedAddresses[i]) {\n                people[_personAddress].verified = false;\n            }\n        }\n    }\n\n    function isEligible (\n        address beneficiaryAddress\n    ) public view returns(uint) {\n        // 1. Find a location of the person and get the average living expenses\n        // 2. Find the physical status, if normal return\n        // 3. Find the different in their income and \n        // if  (people[beneficiaryAddress].verified == false) {\n        //     return 0;\n        // }\n        //  || peopleDetails[beneficiaryAddress].dob\n\n        PersonDetails memory beneficiary = peopleDetails[beneficiaryAddress];\n\n        if (beneficiary.medicalCondition == PhysicalStatus.NORMAL && !isSeniorCitizen(beneficiary.dob)) {\n            return 0;\n        }\n\n        uint pinCode = peopleDetails[beneficiaryAddress].pinCode;\n        uint averageExpense = pinCodes[pinCode].averageExpense;\n        \n        uint differentInExpense = averageExpense - peopleDetails[beneficiaryAddress].income;\n        return differentInExpense;\n    }\n\n    function transferBenefits (address beneficiaryAddress) public {\n        uint benefitsToBeTransferred = isEligible(beneficiaryAddress);\n        if  (people[beneficiaryAddress].verified == true && benefitsToBeTransferred > 0) {\n            for (uint i = 0; i < whiteListedAddresses.length; i++) {\n                if (msg.sender == whiteListedAddresses[i]) {\n                    bankBalance = bankBalance - benefitsToBeTransferred;\n                    people[beneficiaryAddress].benefitsTransferred = true;\n                }\n            } \n        }\n    }\n\n    function isAdmin () public view returns(bool) {\n        for (uint i = 0; i < whiteListedAddresses.length; i++) {\n            if (msg.sender == whiteListedAddresses[i]) {\n                return true;\n            }\n        }\n        return false;\n    }\n    function isSeniorCitizen(int dob) public view returns(bool) {\n        int currentTime = int(block.timestamp) * 1000;\n        int difference = currentTime - dob;\n        \n        if (difference > threshold) {\n            return true;\n        }\n        return false;\n        \n    }\n}\n",
  "sourcePath": "/Users/sraman/projects/crypto-validator/contracts/Validator.sol",
  "compiler": {
    "name": "solc",
    "version": "0.8.5+commit.a4f2e591.Emscripten.clang"
  },
  "schemaVersion": "3.4.0",
  "updatedAt": "2021-09-26T16:20:40.488Z",
  "networkType": "ethereum",
  "devdoc": {
    "kind": "dev",
    "methods": {},
    "version": 1
  },
  "userdoc": {
    "kind": "user",
    "methods": {},
    "version": 1
  }
}